{
  "abi": [
    {
      "inputs": [
        {
          "internalType": "string",
          "name": "_nameOfArtist",
          "type": "string"
        },
        {
          "internalType": "string",
          "name": "_aboutTheArtist",
          "type": "string"
        }
      ],
      "stateMutability": "nonpayable",
      "type": "constructor"
    },
    {
      "inputs": [],
      "name": "aboutTheArtist",
      "outputs": [
        {
          "internalType": "string",
          "name": "",
          "type": "string"
        }
      ],
      "stateMutability": "view",
      "type": "function"
    },
    {
      "inputs": [
        {
          "internalType": "uint256",
          "name": "",
          "type": "uint256"
        }
      ],
      "name": "artWorks",
      "outputs": [
        {
          "internalType": "uint256",
          "name": "id",
          "type": "uint256"
        },
        {
          "internalType": "string",
          "name": "name",
          "type": "string"
        },
        {
          "internalType": "string",
          "name": "url",
          "type": "string"
        },
        {
          "internalType": "string",
          "name": "description",
          "type": "string"
        },
        {
          "internalType": "uint256",
          "name": "basePrice",
          "type": "uint256"
        },
        {
          "internalType": "bool",
          "name": "isSold",
          "type": "bool"
        },
        {
          "internalType": "address",
          "name": "soldTo",
          "type": "address"
        }
      ],
      "stateMutability": "view",
      "type": "function"
    },
    {
      "inputs": [],
      "name": "artist",
      "outputs": [
        {
          "internalType": "address",
          "name": "",
          "type": "address"
        }
      ],
      "stateMutability": "view",
      "type": "function"
    },
    {
      "inputs": [
        {
          "internalType": "uint256",
          "name": "_artWorkId",
          "type": "uint256"
        },
        {
          "internalType": "uint256",
          "name": "_amount",
          "type": "uint256"
        }
      ],
      "name": "bid",
      "outputs": [],
      "stateMutability": "nonpayable",
      "type": "function"
    },
    {
      "inputs": [
        {
          "internalType": "uint256",
          "name": "",
          "type": "uint256"
        }
      ],
      "name": "bids",
      "outputs": [
        {
          "internalType": "uint256",
          "name": "artWorkId",
          "type": "uint256"
        },
        {
          "internalType": "address",
          "name": "bidder",
          "type": "address"
        },
        {
          "internalType": "uint256",
          "name": "amount",
          "type": "uint256"
        },
        {
          "internalType": "bool",
          "name": "isComplete",
          "type": "bool"
        }
      ],
      "stateMutability": "view",
      "type": "function"
    },
    {
      "inputs": [],
      "name": "getCount",
      "outputs": [
        {
          "internalType": "uint256",
          "name": "",
          "type": "uint256"
        },
        {
          "internalType": "uint256",
          "name": "",
          "type": "uint256"
        }
      ],
      "stateMutability": "view",
      "type": "function"
    },
    {
      "inputs": [],
      "name": "nameOfArtist",
      "outputs": [
        {
          "internalType": "string",
          "name": "",
          "type": "string"
        }
      ],
      "stateMutability": "view",
      "type": "function"
    },
    {
      "inputs": [
        {
          "internalType": "uint256",
          "name": "_bidID",
          "type": "uint256"
        }
      ],
      "name": "sell",
      "outputs": [],
      "stateMutability": "nonpayable",
      "type": "function"
    },
    {
      "inputs": [
        {
          "internalType": "string",
          "name": "_name",
          "type": "string"
        },
        {
          "internalType": "string",
          "name": "_url",
          "type": "string"
        },
        {
          "internalType": "string",
          "name": "_description",
          "type": "string"
        },
        {
          "internalType": "uint256",
          "name": "_basePrice",
          "type": "uint256"
        }
      ],
      "name": "uploadArtWork",
      "outputs": [],
      "stateMutability": "nonpayable",
      "type": "function"
    }
  ],
  "devdoc": {
    "kind": "dev",
    "methods": {},
    "version": 1
  },
  "evm": {
    "assembly": "    /* \"Artist.sol\":631:4786  contract Artist {... */\n  mstore(0x40, 0x80)\n    /* \"Artist.sol\":1556:1622  address internal cUSD = 0x874069Fa1Eb16D44d622F2e0Ca25eeA172369bC1 */\n  0x05\n  dup1\n  sload\n  not(sub(shl(0xa0, 0x01), 0x01))\n  and\n    /* \"Artist.sol\":1580:1622  0x874069Fa1Eb16D44d622F2e0Ca25eeA172369bC1 */\n  0x874069fa1eb16d44d622f2e0ca25eea172369bc1\n    /* \"Artist.sol\":1556:1622  address internal cUSD = 0x874069Fa1Eb16D44d622F2e0Ca25eeA172369bC1 */\n  or\n  swap1\n  sstore\n  0x00\n    /* \"Artist.sol\":1685:1696  uint id = 0 */\n  0x06\n  sstore\n    /* \"Artist.sol\":1766:1954  constructor(string memory _nameOfArtist, string memory _aboutTheArtist) {... */\n  callvalue\n  dup1\n  iszero\n  tag_1\n  jumpi\n  0x00\n  dup1\n  revert\ntag_1:\n  pop\n  mload(0x40)\n  sub(codesize, bytecodeSize)\n  dup1\n  bytecodeSize\n  dup4\n  codecopy\n  dup2\n  add\n  0x40\n  dup2\n  swap1\n  mstore\n  tag_2\n  swap2\n  tag_3\n  jump\t// in\ntag_2:\n    /* \"Artist.sol\":1848:1854  artist */\n  0x00\n    /* \"Artist.sol\":1848:1867  artist = msg.sender */\n  dup1\n  sload\n  not(sub(shl(0xa0, 0x01), 0x01))\n  and\n    /* \"Artist.sol\":1857:1867  msg.sender */\n  caller\n    /* \"Artist.sol\":1848:1867  artist = msg.sender */\n  or\n  swap1\n  sstore\n    /* \"Artist.sol\":1877:1905  nameOfArtist = _nameOfArtist */\n  dup2\n  mload\n  tag_6\n  swap1\n    /* \"Artist.sol\":1848:1867  artist = msg.sender */\n  0x01\n  swap1\n    /* \"Artist.sol\":1877:1905  nameOfArtist = _nameOfArtist */\n  0x20\n  dup6\n  add\n  swap1\n  tag_7\n  jump\t// in\ntag_6:\n  pop\n    /* \"Artist.sol\":1915:1947  aboutTheArtist = _aboutTheArtist */\n  dup1\n  mload\n  tag_8\n  swap1\n    /* \"Artist.sol\":1915:1929  aboutTheArtist */\n  0x02\n  swap1\n    /* \"Artist.sol\":1915:1947  aboutTheArtist = _aboutTheArtist */\n  0x20\n  dup5\n  add\n  swap1\n  tag_7\n  jump\t// in\ntag_8:\n  pop\n    /* \"Artist.sol\":1766:1954  constructor(string memory _nameOfArtist, string memory _aboutTheArtist) {... */\n  pop\n  pop\n    /* \"Artist.sol\":631:4786  contract Artist {... */\n  jump(tag_23)\ntag_7:\n  dup3\n  dup1\n  sload\n  tag_10\n  swap1\n  tag_11\n  jump\t// in\ntag_10:\n  swap1\n  0x00\n  mstore\n  keccak256(0x00, 0x20)\n  swap1\n  0x1f\n  add\n  0x20\n  swap1\n  div\n  dup2\n  add\n  swap3\n  dup3\n  tag_13\n  jumpi\n  0x00\n  dup6\n  sstore\n  jump(tag_16)\ntag_13:\n  dup3\n  0x1f\n  lt\n  tag_14\n  jumpi\n  dup1\n  mload\n  not(0xff)\n  and\n  dup4\n  dup1\n  add\n  or\n  dup6\n  sstore\n  jump(tag_16)\ntag_14:\n  dup3\n  dup1\n  add\n  0x01\n  add\n  dup6\n  sstore\n  dup3\n  iszero\n  tag_16\n  jumpi\n  swap2\n  dup3\n  add\ntag_15:\n  dup3\n  dup2\n  gt\n  iszero\n  tag_16\n  jumpi\n  dup3\n  mload\n  dup3\n  sstore\n  swap2\n  0x20\n  add\n  swap2\n  swap1\n  0x01\n  add\n  swap1\n  jump(tag_15)\ntag_16:\n  pop\n  tag_17\n  swap3\n  swap2\n  pop\n  tag_18\n  jump\t// in\ntag_17:\n  pop\n  swap1\n  jump\t// out\ntag_18:\ntag_19:\n  dup1\n  dup3\n  gt\n  iszero\n  tag_17\n  jumpi\n  0x00\n  dup2\n  sstore\n  0x01\n  add\n  jump(tag_19)\n    /* \"#utility.yul\":14:141   */\ntag_21:\n    /* \"#utility.yul\":75:85   */\n  0x4e487b71\n    /* \"#utility.yul\":70:73   */\n  0xe0\n    /* \"#utility.yul\":66:86   */\n  shl\n    /* \"#utility.yul\":63:64   */\n  0x00\n    /* \"#utility.yul\":56:87   */\n  mstore\n    /* \"#utility.yul\":106:110   */\n  0x41\n    /* \"#utility.yul\":103:104   */\n  0x04\n    /* \"#utility.yul\":96:111   */\n  mstore\n    /* \"#utility.yul\":130:134   */\n  0x24\n    /* \"#utility.yul\":127:128   */\n  0x00\n    /* \"#utility.yul\":120:135   */\n  revert\n    /* \"#utility.yul\":146:1031   */\ntag_22:\n    /* \"#utility.yul\":200:205   */\n  0x00\n    /* \"#utility.yul\":253:256   */\n  dup3\n    /* \"#utility.yul\":246:250   */\n  0x1f\n    /* \"#utility.yul\":238:244   */\n  dup4\n    /* \"#utility.yul\":234:251   */\n  add\n    /* \"#utility.yul\":230:257   */\n  slt\n    /* \"#utility.yul\":220:275   */\n  tag_26\n  jumpi\n    /* \"#utility.yul\":271:272   */\n  0x00\n    /* \"#utility.yul\":268:269   */\n  dup1\n    /* \"#utility.yul\":261:273   */\n  revert\n    /* \"#utility.yul\":220:275   */\ntag_26:\n    /* \"#utility.yul\":294:307   */\n  dup2\n  mload\n  sub(shl(0x40, 0x01), 0x01)\n    /* \"#utility.yul\":356:366   */\n  dup1\n  dup3\n  gt\n    /* \"#utility.yul\":353:389   */\n  iszero\n  tag_28\n  jumpi\n    /* \"#utility.yul\":369:387   */\n  tag_28\n  tag_21\n  jump\t// in\ntag_28:\n    /* \"#utility.yul\":444:446   */\n  0x40\n    /* \"#utility.yul\":438:447   */\n  mload\n    /* \"#utility.yul\":412:414   */\n  0x1f\n    /* \"#utility.yul\":498:511   */\n  dup4\n  add\n  not(0x1f)\n    /* \"#utility.yul\":494:516   */\n  swap1\n  dup2\n  and\n    /* \"#utility.yul\":518:520   */\n  0x3f\n    /* \"#utility.yul\":490:521   */\n  add\n    /* \"#utility.yul\":486:526   */\n  and\n    /* \"#utility.yul\":474:527   */\n  dup2\n  add\n  swap1\n    /* \"#utility.yul\":542:560   */\n  dup3\n  dup3\n  gt\n    /* \"#utility.yul\":562:584   */\n  dup2\n  dup4\n  lt\n    /* \"#utility.yul\":539:585   */\n  or\n    /* \"#utility.yul\":536:608   */\n  iszero\n  tag_30\n  jumpi\n    /* \"#utility.yul\":588:606   */\n  tag_30\n  tag_21\n  jump\t// in\ntag_30:\n    /* \"#utility.yul\":628:638   */\n  dup2\n    /* \"#utility.yul\":624:626   */\n  0x40\n    /* \"#utility.yul\":617:639   */\n  mstore\n    /* \"#utility.yul\":663:665   */\n  dup4\n    /* \"#utility.yul\":655:661   */\n  dup2\n    /* \"#utility.yul\":648:666   */\n  mstore\n    /* \"#utility.yul\":685:689   */\n  0x20\n    /* \"#utility.yul\":675:689   */\n  swap3\n  pop\n    /* \"#utility.yul\":730:733   */\n  dup7\n    /* \"#utility.yul\":725:727   */\n  dup4\n    /* \"#utility.yul\":720:722   */\n  dup6\n    /* \"#utility.yul\":712:718   */\n  dup9\n    /* \"#utility.yul\":708:723   */\n  add\n    /* \"#utility.yul\":704:728   */\n  add\n    /* \"#utility.yul\":701:734   */\n  gt\n    /* \"#utility.yul\":698:751   */\n  iszero\n  tag_31\n  jumpi\n    /* \"#utility.yul\":747:748   */\n  0x00\n    /* \"#utility.yul\":744:745   */\n  dup1\n    /* \"#utility.yul\":737:749   */\n  revert\n    /* \"#utility.yul\":698:751   */\ntag_31:\n    /* \"#utility.yul\":769:770   */\n  0x00\n    /* \"#utility.yul\":760:770   */\n  swap2\n  pop\n    /* \"#utility.yul\":779:912   */\ntag_32:\n    /* \"#utility.yul\":793:795   */\n  dup4\n    /* \"#utility.yul\":790:791   */\n  dup3\n    /* \"#utility.yul\":787:796   */\n  lt\n    /* \"#utility.yul\":779:912   */\n  iszero\n  tag_34\n  jumpi\n    /* \"#utility.yul\":881:895   */\n  dup6\n  dup3\n  add\n    /* \"#utility.yul\":877:900   */\n  dup4\n  add\n    /* \"#utility.yul\":871:901   */\n  mload\n    /* \"#utility.yul\":850:864   */\n  dup2\n  dup4\n  add\n    /* \"#utility.yul\":846:869   */\n  dup5\n  add\n    /* \"#utility.yul\":839:902   */\n  mstore\n    /* \"#utility.yul\":804:814   */\n  swap1\n  dup3\n  add\n  swap1\n    /* \"#utility.yul\":779:912   */\n  jump(tag_32)\ntag_34:\n    /* \"#utility.yul\":930:932   */\n  dup4\n    /* \"#utility.yul\":927:928   */\n  dup3\n    /* \"#utility.yul\":924:933   */\n  gt\n    /* \"#utility.yul\":921:1001   */\n  iszero\n  tag_35\n  jumpi\n    /* \"#utility.yul\":989:990   */\n  0x00\n    /* \"#utility.yul\":984:986   */\n  dup4\n    /* \"#utility.yul\":979:981   */\n  dup6\n    /* \"#utility.yul\":971:977   */\n  dup4\n    /* \"#utility.yul\":967:982   */\n  add\n    /* \"#utility.yul\":963:987   */\n  add\n    /* \"#utility.yul\":956:991   */\n  mstore\n    /* \"#utility.yul\":921:1001   */\ntag_35:\n    /* \"#utility.yul\":1019:1025   */\n  swap7\n    /* \"#utility.yul\":146:1031   */\n  swap6\n  pop\n  pop\n  pop\n  pop\n  pop\n  pop\n  jump\t// out\n    /* \"#utility.yul\":1036:1598   */\ntag_3:\n    /* \"#utility.yul\":1135:1141   */\n  0x00\n    /* \"#utility.yul\":1143:1149   */\n  dup1\n    /* \"#utility.yul\":1196:1198   */\n  0x40\n    /* \"#utility.yul\":1184:1193   */\n  dup4\n    /* \"#utility.yul\":1175:1182   */\n  dup6\n    /* \"#utility.yul\":1171:1194   */\n  sub\n    /* \"#utility.yul\":1167:1199   */\n  slt\n    /* \"#utility.yul\":1164:1216   */\n  iszero\n  tag_37\n  jumpi\n    /* \"#utility.yul\":1212:1213   */\n  0x00\n    /* \"#utility.yul\":1209:1210   */\n  dup1\n    /* \"#utility.yul\":1202:1214   */\n  revert\n    /* \"#utility.yul\":1164:1216   */\ntag_37:\n    /* \"#utility.yul\":1239:1255   */\n  dup3\n  mload\n  sub(shl(0x40, 0x01), 0x01)\n    /* \"#utility.yul\":1304:1318   */\n  dup1\n  dup3\n  gt\n    /* \"#utility.yul\":1301:1335   */\n  iszero\n  tag_38\n  jumpi\n    /* \"#utility.yul\":1331:1332   */\n  0x00\n    /* \"#utility.yul\":1328:1329   */\n  dup1\n    /* \"#utility.yul\":1321:1333   */\n  revert\n    /* \"#utility.yul\":1301:1335   */\ntag_38:\n    /* \"#utility.yul\":1354:1415   */\n  tag_39\n    /* \"#utility.yul\":1407:1414   */\n  dup7\n    /* \"#utility.yul\":1398:1404   */\n  dup4\n    /* \"#utility.yul\":1387:1396   */\n  dup8\n    /* \"#utility.yul\":1383:1405   */\n  add\n    /* \"#utility.yul\":1354:1415   */\n  tag_22\n  jump\t// in\ntag_39:\n    /* \"#utility.yul\":1344:1415   */\n  swap4\n  pop\n    /* \"#utility.yul\":1461:1463   */\n  0x20\n    /* \"#utility.yul\":1450:1459   */\n  dup6\n    /* \"#utility.yul\":1446:1464   */\n  add\n    /* \"#utility.yul\":1440:1465   */\n  mload\n    /* \"#utility.yul\":1424:1465   */\n  swap2\n  pop\n    /* \"#utility.yul\":1490:1492   */\n  dup1\n    /* \"#utility.yul\":1480:1488   */\n  dup3\n    /* \"#utility.yul\":1477:1493   */\n  gt\n    /* \"#utility.yul\":1474:1510   */\n  iszero\n  tag_40\n  jumpi\n    /* \"#utility.yul\":1506:1507   */\n  0x00\n    /* \"#utility.yul\":1503:1504   */\n  dup1\n    /* \"#utility.yul\":1496:1508   */\n  revert\n    /* \"#utility.yul\":1474:1510   */\ntag_40:\n  pop\n    /* \"#utility.yul\":1529:1592   */\n  tag_41\n    /* \"#utility.yul\":1584:1591   */\n  dup6\n    /* \"#utility.yul\":1573:1581   */\n  dup3\n    /* \"#utility.yul\":1562:1571   */\n  dup7\n    /* \"#utility.yul\":1558:1582   */\n  add\n    /* \"#utility.yul\":1529:1592   */\n  tag_22\n  jump\t// in\ntag_41:\n    /* \"#utility.yul\":1519:1592   */\n  swap2\n  pop\n  pop\n    /* \"#utility.yul\":1036:1598   */\n  swap3\n  pop\n  swap3\n  swap1\n  pop\n  jump\t// out\n    /* \"#utility.yul\":1603:1983   */\ntag_11:\n    /* \"#utility.yul\":1682:1683   */\n  0x01\n    /* \"#utility.yul\":1678:1690   */\n  dup2\n  dup2\n  shr\n  swap1\n    /* \"#utility.yul\":1725:1737   */\n  dup3\n  and\n  dup1\n    /* \"#utility.yul\":1746:1807   */\n  tag_43\n  jumpi\n    /* \"#utility.yul\":1800:1804   */\n  0x7f\n    /* \"#utility.yul\":1792:1798   */\n  dup3\n    /* \"#utility.yul\":1788:1805   */\n  and\n    /* \"#utility.yul\":1778:1805   */\n  swap2\n  pop\n    /* \"#utility.yul\":1746:1807   */\ntag_43:\n    /* \"#utility.yul\":1853:1855   */\n  0x20\n    /* \"#utility.yul\":1845:1851   */\n  dup3\n    /* \"#utility.yul\":1842:1856   */\n  lt\n    /* \"#utility.yul\":1822:1840   */\n  dup2\n    /* \"#utility.yul\":1819:1857   */\n  sub\n    /* \"#utility.yul\":1816:1977   */\n  tag_44\n  jumpi\n    /* \"#utility.yul\":1899:1909   */\n  0x4e487b71\n    /* \"#utility.yul\":1894:1897   */\n  0xe0\n    /* \"#utility.yul\":1890:1910   */\n  shl\n    /* \"#utility.yul\":1887:1888   */\n  0x00\n    /* \"#utility.yul\":1880:1911   */\n  mstore\n    /* \"#utility.yul\":1934:1938   */\n  0x22\n    /* \"#utility.yul\":1931:1932   */\n  0x04\n    /* \"#utility.yul\":1924:1939   */\n  mstore\n    /* \"#utility.yul\":1962:1966   */\n  0x24\n    /* \"#utility.yul\":1959:1960   */\n  0x00\n    /* \"#utility.yul\":1952:1967   */\n  revert\n    /* \"#utility.yul\":1816:1977   */\ntag_44:\n  pop\n    /* \"#utility.yul\":1603:1983   */\n  swap2\n  swap1\n  pop\n  jump\t// out\ntag_23:\n    /* \"Artist.sol\":631:4786  contract Artist {... */\n  dataSize(sub_0)\n  dup1\n  dataOffset(sub_0)\n  0x00\n  codecopy\n  0x00\n  return\nstop\n\nsub_0: assembly {\n        /* \"Artist.sol\":631:4786  contract Artist {... */\n      mstore(0x40, 0x80)\n      callvalue\n      dup1\n      iszero\n      tag_1\n      jumpi\n      0x00\n      dup1\n      revert\n    tag_1:\n      pop\n      jumpi(tag_2, lt(calldatasize, 0x04))\n      shr(0xe0, calldataload(0x00))\n      dup1\n      0x80a79d5f\n      gt\n      tag_12\n      jumpi\n      dup1\n      0xc11ca819\n      gt\n      tag_13\n      jumpi\n      dup1\n      0xc11ca819\n      eq\n      tag_9\n      jumpi\n      dup1\n      0xe4849b32\n      eq\n      tag_10\n      jumpi\n      dup1\n      0xe89e025c\n      eq\n      tag_11\n      jumpi\n      0x00\n      dup1\n      revert\n    tag_13:\n      dup1\n      0x80a79d5f\n      eq\n      tag_7\n      jumpi\n      dup1\n      0xa87d942c\n      eq\n      tag_8\n      jumpi\n      0x00\n      dup1\n      revert\n    tag_12:\n      dup1\n      0x43bc1612\n      eq\n      tag_3\n      jumpi\n      dup1\n      0x4423c5f1\n      eq\n      tag_4\n      jumpi\n      dup1\n      0x4628d863\n      eq\n      tag_5\n      jumpi\n      dup1\n      0x598647f8\n      eq\n      tag_6\n      jumpi\n    tag_2:\n      0x00\n      dup1\n      revert\n        /* \"Artist.sol\":1368:1389  address public artist */\n    tag_3:\n      sload(0x00)\n      tag_14\n      swap1\n      sub(shl(0xa0, 0x01), 0x01)\n      and\n      dup2\n      jump\n    tag_14:\n      mload(0x40)\n      sub(shl(0xa0, 0x01), 0x01)\n        /* \"#utility.yul\":178:233   */\n      swap1\n      swap2\n      and\n        /* \"#utility.yul\":160:234   */\n      dup2\n      mstore\n        /* \"#utility.yul\":148:150   */\n      0x20\n        /* \"#utility.yul\":133:151   */\n      add\n        /* \"Artist.sol\":1368:1389  address public artist */\n    tag_16:\n      mload(0x40)\n      dup1\n      swap2\n      sub\n      swap1\n      return\n        /* \"Artist.sol\":1740:1758  Bid [] public bids */\n    tag_4:\n      tag_18\n      tag_19\n      calldatasize\n      0x04\n      tag_20\n      jump\t// in\n    tag_19:\n      tag_21\n      jump\t// in\n    tag_18:\n      0x40\n      dup1\n      mload\n        /* \"#utility.yul\":655:680   */\n      swap5\n      dup6\n      mstore\n      sub(shl(0xa0, 0x01), 0x01)\n        /* \"#utility.yul\":716:771   */\n      swap1\n      swap4\n      and\n        /* \"#utility.yul\":711:713   */\n      0x20\n        /* \"#utility.yul\":696:714   */\n      dup6\n      add\n        /* \"#utility.yul\":689:772   */\n      mstore\n        /* \"#utility.yul\":788:806   */\n      swap2\n      dup4\n      add\n        /* \"#utility.yul\":781:815   */\n      mstore\n        /* \"#utility.yul\":858:872   */\n      iszero\n        /* \"#utility.yul\":851:873   */\n      iszero\n        /* \"#utility.yul\":846:848   */\n      0x60\n        /* \"#utility.yul\":831:849   */\n      dup3\n      add\n        /* \"#utility.yul\":824:874   */\n      mstore\n        /* \"#utility.yul\":642:645   */\n      0x80\n        /* \"#utility.yul\":627:646   */\n      add\n        /* \"Artist.sol\":1740:1758  Bid [] public bids */\n      tag_16\n        /* \"#utility.yul\":430:880   */\n      jump\n        /* \"Artist.sol\":2022:3023  function uploadArtWork( string memory _name,... */\n    tag_5:\n      tag_24\n      tag_25\n      calldatasize\n      0x04\n      tag_26\n      jump\t// in\n    tag_25:\n      tag_27\n      jump\t// in\n    tag_24:\n      stop\n        /* \"Artist.sol\":3104:3682  function bid(uint _artWorkId,uint _amount) public {... */\n    tag_6:\n      tag_24\n      tag_29\n      calldatasize\n      0x04\n      tag_30\n      jump\t// in\n    tag_29:\n      tag_31\n      jump\t// in\n        /* \"Artist.sol\":1427:1455  string public aboutTheArtist */\n    tag_7:\n      tag_32\n      tag_33\n      jump\t// in\n    tag_32:\n      mload(0x40)\n      tag_16\n      swap2\n      swap1\n      tag_35\n      jump\t// in\n        /* \"Artist.sol\":4647:4784  function getCount() public view returns(uint,uint){... */\n    tag_8:\n        /* \"Artist.sol\":4727:4742  countOfArtWorks */\n      sload(0x03)\n        /* \"Artist.sol\":4756:4767  countOfBids */\n      sload(0x04)\n        /* \"Artist.sol\":4647:4784  function getCount() public view returns(uint,uint){... */\n      0x40\n      dup1\n      mload\n        /* \"#utility.yul\":3687:3712   */\n      swap3\n      dup4\n      mstore\n        /* \"#utility.yul\":3743:3745   */\n      0x20\n        /* \"#utility.yul\":3728:3746   */\n      dup4\n      add\n        /* \"#utility.yul\":3721:3755   */\n      swap2\n      swap1\n      swap2\n      mstore\n        /* \"#utility.yul\":3660:3678   */\n      add\n        /* \"Artist.sol\":4647:4784  function getCount() public view returns(uint,uint){... */\n      tag_16\n        /* \"#utility.yul\":3513:3761   */\n      jump\n        /* \"Artist.sol\":1395:1421  string public nameOfArtist */\n    tag_9:\n      tag_32\n      tag_41\n      jump\t// in\n        /* \"Artist.sol\":3769:4591  function sell(uint _bidID) public onlyArtist {... */\n    tag_10:\n      tag_24\n      tag_44\n      calldatasize\n      0x04\n      tag_20\n      jump\t// in\n    tag_44:\n      tag_45\n      jump\t// in\n        /* \"Artist.sol\":1707:1733  ArtWork [] public artWorks */\n    tag_11:\n      tag_46\n      tag_47\n      calldatasize\n      0x04\n      tag_20\n      jump\t// in\n    tag_47:\n      tag_48\n      jump\t// in\n    tag_46:\n      mload(0x40)\n      tag_16\n      swap8\n      swap7\n      swap6\n      swap5\n      swap4\n      swap3\n      swap2\n      swap1\n      tag_50\n      jump\t// in\n        /* \"Artist.sol\":1740:1758  Bid [] public bids */\n    tag_21:\n      0x08\n      dup2\n      dup2\n      sload\n      dup2\n      lt\n      tag_51\n      jumpi\n      0x00\n      dup1\n      revert\n    tag_51:\n      0x00\n      swap2\n      dup3\n      mstore\n      0x20\n      swap1\n      swap2\n      keccak256\n      0x04\n      swap1\n      swap2\n      mul\n      add\n      dup1\n      sload\n      0x01\n      dup3\n      add\n      sload\n      0x02\n      dup4\n      add\n      sload\n      0x03\n      swap1\n      swap4\n      add\n      sload\n      swap2\n      swap4\n      pop\n      sub(shl(0xa0, 0x01), 0x01)\n      and\n      swap2\n      swap1\n      0xff\n      and\n      dup5\n      jump\t// out\n        /* \"Artist.sol\":2022:3023  function uploadArtWork( string memory _name,... */\n    tag_27:\n        /* \"Artist.sol\":1308:1314  artist */\n      and(sub(shl(0xa0, 0x01), 0x01), sload(0x00))\n        /* \"Artist.sol\":1318:1328  msg.sender */\n      caller\n        /* \"Artist.sol\":1308:1328  artist == msg.sender */\n      eq\n        /* \"Artist.sol\":1300:1344  require(artist == msg.sender,\"Only Artist!\") */\n      tag_54\n      jumpi\n      mload(0x40)\n      shl(0xe5, 0x461bcd)\n      dup2\n      mstore\n        /* \"#utility.yul\":4867:4869   */\n      0x20\n        /* \"Artist.sol\":1300:1344  require(artist == msg.sender,\"Only Artist!\") */\n      0x04\n      dup3\n      add\n        /* \"#utility.yul\":4849:4870   */\n      mstore\n        /* \"#utility.yul\":4906:4908   */\n      0x0c\n        /* \"#utility.yul\":4886:4904   */\n      0x24\n      dup3\n      add\n        /* \"#utility.yul\":4879:4909   */\n      mstore\n      shl(0xa0, 0x4f6e6c792041727469737421)\n        /* \"#utility.yul\":4925:4943   */\n      0x44\n      dup3\n      add\n        /* \"#utility.yul\":4918:4960   */\n      mstore\n        /* \"#utility.yul\":4977:4995   */\n      0x64\n      add\n        /* \"Artist.sol\":1300:1344  require(artist == msg.sender,\"Only Artist!\") */\n    tag_55:\n      mload(0x40)\n      dup1\n      swap2\n      sub\n      swap1\n      revert\n    tag_54:\n        /* \"Artist.sol\":2352:2757  ArtWork({... */\n      0x40\n      dup1\n      mload\n      0xe0\n      dup2\n      add\n      dup3\n      mstore\n        /* \"Artist.sol\":2401:2403  id */\n      0x06\n      dup1\n      sload\n        /* \"Artist.sol\":2352:2757  ArtWork({... */\n      dup3\n      mstore\n      0x20\n      dup1\n      dup4\n      add\n      dup9\n      dup2\n      mstore\n      swap4\n      dup4\n      add\n      dup8\n      swap1\n      mstore\n      0x60\n      dup4\n      add\n      dup7\n      swap1\n      mstore\n      0x80\n      dup4\n      add\n      dup6\n      swap1\n      mstore\n        /* \"Artist.sol\":2324:2349  ArtWork memory newArtWork */\n      0x00\n        /* \"Artist.sol\":2352:2757  ArtWork({... */\n      0xa0\n      dup5\n      add\n      dup2\n      swap1\n      mstore\n      0xc0\n      dup5\n      add\n      dup2\n      swap1\n      mstore\n        /* \"Artist.sol\":2872:2880  artWorks */\n      0x07\n        /* \"Artist.sol\":2872:2897  artWorks.push(newArtWork) */\n      dup1\n      sload\n        /* \"Artist.sol\":2352:2757  ArtWork({... */\n      0x01\n        /* \"Artist.sol\":2872:2897  artWorks.push(newArtWork) */\n      dup2\n      add\n      dup3\n      sstore\n      swap2\n      mstore\n      dup4\n      mload\n      swap3\n      mul\n      0xa66cc928b5edb82af9bd49922954155ab7b0942694bea4ce44661d9a8736c688\n      dup2\n      add\n      swap3\n      dup4\n      sstore\n      swap4\n      mload\n      dup1\n      mload\n        /* \"Artist.sol\":2352:2757  ArtWork({... */\n      swap4\n      swap5\n      dup6\n      swap5\n        /* \"Artist.sol\":2872:2897  artWorks.push(newArtWork) */\n      tag_59\n      swap4\n      0xa66cc928b5edb82af9bd49922954155ab7b0942694bea4ce44661d9a8736c689\n      swap1\n      swap3\n      add\n      swap3\n      swap1\n      swap2\n      add\n      swap1\n      tag_60\n      jump\t// in\n    tag_59:\n      pop\n      0x40\n      dup3\n      add\n      mload\n      dup1\n      mload\n      tag_61\n      swap2\n      0x02\n      dup5\n      add\n      swap2\n      0x20\n      swap1\n      swap2\n      add\n      swap1\n      tag_60\n      jump\t// in\n    tag_61:\n      pop\n      0x60\n      dup3\n      add\n      mload\n      dup1\n      mload\n      tag_62\n      swap2\n      0x03\n      dup5\n      add\n      swap2\n      0x20\n      swap1\n      swap2\n      add\n      swap1\n      tag_60\n      jump\t// in\n    tag_62:\n      pop\n      0x80\n      dup3\n      add\n      mload\n      0x04\n      dup3\n      add\n      sstore\n      0xa0\n      dup3\n      add\n      mload\n      0x05\n      swap1\n      swap2\n      add\n      dup1\n      sload\n      0xc0\n      swap1\n      swap4\n      add\n      mload\n      sub(shl(0xa0, 0x01), 0x01)\n      and\n      0x0100\n      mul\n      0xffffffffffffffffffffff0000000000000000000000000000000000000000ff\n      swap3\n      iszero\n      iszero\n      swap3\n      swap1\n      swap3\n      and\n      0xffffffffffffffffffffff000000000000000000000000000000000000000000\n      swap1\n      swap4\n      and\n      swap3\n      swap1\n      swap3\n      or\n      or\n      swap1\n      sstore\n        /* \"Artist.sol\":2931:2933  id */\n      0x06\n        /* \"Artist.sol\":2931:2938  id += 1 */\n      dup1\n      sload\n        /* \"Artist.sol\":2872:2897  artWorks.push(newArtWork) */\n      0x01\n      swap2\n        /* \"Artist.sol\":2931:2933  id */\n      swap1\n        /* \"Artist.sol\":2872:2897  artWorks.push(newArtWork) */\n      0x00\n      swap1\n        /* \"Artist.sol\":2931:2938  id += 1 */\n      tag_63\n      swap1\n        /* \"Artist.sol\":2872:2897  artWorks.push(newArtWork) */\n      dup5\n      swap1\n        /* \"Artist.sol\":2931:2938  id += 1 */\n      tag_64\n      jump\t// in\n    tag_63:\n      swap3\n      pop\n      pop\n      dup2\n      swap1\n      sstore\n      pop\n        /* \"Artist.sol\":2991:2992  1 */\n      0x01\n        /* \"Artist.sol\":2973:2988  countOfArtWorks */\n      0x03\n      0x00\n        /* \"Artist.sol\":2973:2992  countOfArtWorks +=1 */\n      dup3\n      dup3\n      sload\n      tag_65\n      swap2\n      swap1\n      tag_64\n      jump\t// in\n    tag_65:\n      swap1\n      swap2\n      sstore\n      pop\n      pop\n      pop\n      pop\n      pop\n      pop\n      pop\n        /* \"Artist.sol\":2022:3023  function uploadArtWork( string memory _name,... */\n      jump\t// out\n        /* \"Artist.sol\":3104:3682  function bid(uint _artWorkId,uint _amount) public {... */\n    tag_31:\n        /* \"Artist.sol\":3199:3209  _artWorkId */\n      dup2\n        /* \"Artist.sol\":3172:3180  artWorks */\n      0x07\n        /* \"Artist.sol\":3181:3191  _artWorkId */\n      dup4\n        /* \"Artist.sol\":3172:3192  artWorks[_artWorkId] */\n      dup2\n      sload\n      dup2\n      lt\n      tag_68\n      jumpi\n      tag_68\n      tag_69\n      jump\t// in\n    tag_68:\n      swap1\n      0x00\n      mstore\n      keccak256(0x00, 0x20)\n      swap1\n      0x06\n      mul\n      add\n        /* \"Artist.sol\":3172:3195  artWorks[_artWorkId].id */\n      0x00\n      add\n      sload\n        /* \"Artist.sol\":3172:3209  artWorks[_artWorkId].id == _artWorkId */\n      eq\n        /* \"Artist.sol\":3164:3221  require(artWorks[_artWorkId].id == _artWorkId,\"Wrong id\") */\n      tag_71\n      jumpi\n      mload(0x40)\n      shl(0xe5, 0x461bcd)\n      dup2\n      mstore\n        /* \"#utility.yul\":5570:5572   */\n      0x20\n        /* \"Artist.sol\":3164:3221  require(artWorks[_artWorkId].id == _artWorkId,\"Wrong id\") */\n      0x04\n      dup3\n      add\n        /* \"#utility.yul\":5552:5573   */\n      mstore\n        /* \"#utility.yul\":5609:5610   */\n      0x08\n        /* \"#utility.yul\":5589:5607   */\n      0x24\n      dup3\n      add\n        /* \"#utility.yul\":5582:5611   */\n      mstore\n        /* \"#utility.yul\":5647:5657   */\n      0x57726f6e67206964000000000000000000000000000000000000000000000000\n        /* \"#utility.yul\":5627:5645   */\n      0x44\n      dup3\n      add\n        /* \"#utility.yul\":5620:5658   */\n      mstore\n        /* \"#utility.yul\":5675:5693   */\n      0x64\n      add\n        /* \"Artist.sol\":3164:3221  require(artWorks[_artWorkId].id == _artWorkId,\"Wrong id\") */\n      tag_55\n        /* \"#utility.yul\":5368:5699   */\n      jump\n        /* \"Artist.sol\":3164:3221  require(artWorks[_artWorkId].id == _artWorkId,\"Wrong id\") */\n    tag_71:\n        /* \"Artist.sol\":3239:3247  artWorks */\n      0x07\n        /* \"Artist.sol\":3248:3258  _artWorkId */\n      dup3\n        /* \"Artist.sol\":3239:3259  artWorks[_artWorkId] */\n      dup2\n      sload\n      dup2\n      lt\n      tag_75\n      jumpi\n      tag_75\n      tag_69\n      jump\t// in\n    tag_75:\n      0x00\n      swap2\n      dup3\n      mstore\n      0x20\n      swap1\n      swap2\n      keccak256\n        /* \"Artist.sol\":3239:3266  artWorks[_artWorkId].isSold */\n      0x05\n        /* \"Artist.sol\":3239:3259  artWorks[_artWorkId] */\n      0x06\n      swap1\n      swap3\n      mul\n      add\n        /* \"Artist.sol\":3239:3266  artWorks[_artWorkId].isSold */\n      add\n      sload\n      0xff\n      and\n        /* \"Artist.sol\":3239:3275  artWorks[_artWorkId].isSold == false */\n      iszero\n        /* \"Artist.sol\":3231:3288  require(artWorks[_artWorkId].isSold == false,\"Sold out!\") */\n      tag_77\n      jumpi\n      mload(0x40)\n      shl(0xe5, 0x461bcd)\n      dup2\n      mstore\n        /* \"#utility.yul\":5906:5908   */\n      0x20\n        /* \"Artist.sol\":3231:3288  require(artWorks[_artWorkId].isSold == false,\"Sold out!\") */\n      0x04\n      dup3\n      add\n        /* \"#utility.yul\":5888:5909   */\n      mstore\n        /* \"#utility.yul\":5945:5946   */\n      0x09\n        /* \"#utility.yul\":5925:5943   */\n      0x24\n      dup3\n      add\n        /* \"#utility.yul\":5918:5947   */\n      mstore\n        /* \"#utility.yul\":5983:5994   */\n      0x536f6c64206f7574210000000000000000000000000000000000000000000000\n        /* \"#utility.yul\":5963:5981   */\n      0x44\n      dup3\n      add\n        /* \"#utility.yul\":5956:5995   */\n      mstore\n        /* \"#utility.yul\":6012:6030   */\n      0x64\n      add\n        /* \"Artist.sol\":3231:3288  require(artWorks[_artWorkId].isSold == false,\"Sold out!\") */\n      tag_55\n        /* \"#utility.yul\":5704:6036   */\n      jump\n        /* \"Artist.sol\":3231:3288  require(artWorks[_artWorkId].isSold == false,\"Sold out!\") */\n    tag_77:\n        /* \"Artist.sol\":3317:3325  artWorks */\n      0x07\n        /* \"Artist.sol\":3326:3336  _artWorkId */\n      dup3\n        /* \"Artist.sol\":3317:3337  artWorks[_artWorkId] */\n      dup2\n      sload\n      dup2\n      lt\n      tag_81\n      jumpi\n      tag_81\n      tag_69\n      jump\t// in\n    tag_81:\n      swap1\n      0x00\n      mstore\n      keccak256(0x00, 0x20)\n      swap1\n      0x06\n      mul\n      add\n        /* \"Artist.sol\":3317:3347  artWorks[_artWorkId].basePrice */\n      0x04\n      add\n      sload\n        /* \"Artist.sol\":3306:3313  _amount */\n      dup2\n        /* \"Artist.sol\":3306:3347  _amount >= artWorks[_artWorkId].basePrice */\n      lt\n      iszero\n        /* \"Artist.sol\":3298:3397  require(_amount >= artWorks[_artWorkId].basePrice,\"Make sure that you atleat match the base price\") */\n      tag_83\n      jumpi\n      mload(0x40)\n      shl(0xe5, 0x461bcd)\n      dup2\n      mstore\n        /* \"#utility.yul\":6243:6245   */\n      0x20\n        /* \"Artist.sol\":3298:3397  require(_amount >= artWorks[_artWorkId].basePrice,\"Make sure that you atleat match the base price\") */\n      0x04\n      dup3\n      add\n        /* \"#utility.yul\":6225:6246   */\n      mstore\n        /* \"#utility.yul\":6282:6284   */\n      0x2e\n        /* \"#utility.yul\":6262:6280   */\n      0x24\n      dup3\n      add\n        /* \"#utility.yul\":6255:6285   */\n      mstore\n        /* \"#utility.yul\":6321:6355   */\n      0x4d616b652073757265207468617420796f752061746c656174206d6174636820\n        /* \"#utility.yul\":6301:6319   */\n      0x44\n      dup3\n      add\n        /* \"#utility.yul\":6294:6356   */\n      mstore\n        /* \"#utility.yul\":6392:6408   */\n      0x7468652062617365207072696365000000000000000000000000000000000000\n        /* \"#utility.yul\":6372:6390   */\n      0x64\n      dup3\n      add\n        /* \"#utility.yul\":6365:6409   */\n      mstore\n        /* \"#utility.yul\":6426:6445   */\n      0x84\n      add\n        /* \"Artist.sol\":3298:3397  require(_amount >= artWorks[_artWorkId].basePrice,\"Make sure that you atleat match the base price\") */\n      tag_55\n        /* \"#utility.yul\":6041:6451   */\n      jump\n        /* \"Artist.sol\":3298:3397  require(_amount >= artWorks[_artWorkId].basePrice,\"Make sure that you atleat match the base price\") */\n    tag_83:\n        /* \"Artist.sol\":3437:3575  Bid({... */\n      0x40\n      dup1\n      mload\n      0x80\n      dup2\n      add\n      dup3\n      mstore\n      dup4\n      dup2\n      mstore\n        /* \"Artist.sol\":3496:3506  msg.sender */\n      caller\n        /* \"Artist.sol\":3437:3575  Bid({... */\n      0x20\n      dup3\n      add\n      swap1\n      dup2\n      mstore\n      swap2\n      dup2\n      add\n      dup4\n      dup2\n      mstore\n      0x00\n      0x60\n      dup4\n      add\n      dup2\n      dup2\n      mstore\n        /* \"Artist.sol\":3632:3636  bids */\n      0x08\n        /* \"Artist.sol\":3632:3649  bids.push(newBid) */\n      dup1\n      sload\n        /* \"Artist.sol\":3437:3575  Bid({... */\n      0x01\n        /* \"Artist.sol\":3632:3649  bids.push(newBid) */\n      dup1\n      dup3\n      add\n      dup4\n      sstore\n      swap2\n      dup5\n      mstore\n      dup6\n      mload\n      0xf3f7a9fe364faab93b216da50a3214154f22a0a2b415b23a84c8169e8b636ee3\n      0x04\n      swap3\n      dup4\n      mul\n      swap1\n      dup2\n      add\n      swap2\n      swap1\n      swap2\n      sstore\n      swap7\n      mload\n      0xf3f7a9fe364faab93b216da50a3214154f22a0a2b415b23a84c8169e8b636ee4\n      dup9\n      add\n      dup1\n      sload\n      0xffffffffffffffffffffffff0000000000000000000000000000000000000000\n      and\n      sub(shl(0xa0, 0x01), 0x01)\n      swap1\n      swap3\n      and\n      swap2\n      swap1\n      swap2\n      or\n      swap1\n      sstore\n      swap4\n      mload\n      0xf3f7a9fe364faab93b216da50a3214154f22a0a2b415b23a84c8169e8b636ee5\n      dup8\n      add\n      sstore\n      swap1\n      mload\n      0xf3f7a9fe364faab93b216da50a3214154f22a0a2b415b23a84c8169e8b636ee6\n      swap1\n      swap6\n      add\n      dup1\n      sload\n      not(0xff)\n      and\n      swap6\n      iszero\n      iszero\n      swap6\n      swap1\n      swap6\n      or\n      swap1\n      swap5\n      sstore\n        /* \"Artist.sol\":3659:3675  countOfBids += 1 */\n      dup2\n      sload\n        /* \"Artist.sol\":3437:3575  Bid({... */\n      swap3\n      swap4\n      swap3\n        /* \"Artist.sol\":3659:3675  countOfBids += 1 */\n      tag_87\n      swap1\n        /* \"Artist.sol\":3437:3575  Bid({... */\n      dup5\n      swap1\n        /* \"Artist.sol\":3659:3675  countOfBids += 1 */\n      tag_64\n      jump\t// in\n    tag_87:\n      swap1\n      swap2\n      sstore\n      pop\n      pop\n      pop\n      pop\n      pop\n        /* \"Artist.sol\":3104:3682  function bid(uint _artWorkId,uint _amount) public {... */\n      jump\t// out\n        /* \"Artist.sol\":1427:1455  string public aboutTheArtist */\n    tag_33:\n      0x02\n      dup1\n      sload\n      tag_88\n      swap1\n      tag_89\n      jump\t// in\n    tag_88:\n      dup1\n      0x1f\n      add\n      0x20\n      dup1\n      swap2\n      div\n      mul\n      0x20\n      add\n      mload(0x40)\n      swap1\n      dup2\n      add\n      0x40\n      mstore\n      dup1\n      swap3\n      swap2\n      swap1\n      dup2\n      dup2\n      mstore\n      0x20\n      add\n      dup3\n      dup1\n      sload\n      tag_90\n      swap1\n      tag_89\n      jump\t// in\n    tag_90:\n      dup1\n      iszero\n      tag_91\n      jumpi\n      dup1\n      0x1f\n      lt\n      tag_92\n      jumpi\n      0x0100\n      dup1\n      dup4\n      sload\n      div\n      mul\n      dup4\n      mstore\n      swap2\n      0x20\n      add\n      swap2\n      jump(tag_91)\n    tag_92:\n      dup3\n      add\n      swap2\n      swap1\n      0x00\n      mstore\n      keccak256(0x00, 0x20)\n      swap1\n    tag_93:\n      dup2\n      sload\n      dup2\n      mstore\n      swap1\n      0x01\n      add\n      swap1\n      0x20\n      add\n      dup1\n      dup4\n      gt\n      tag_93\n      jumpi\n      dup3\n      swap1\n      sub\n      0x1f\n      and\n      dup3\n      add\n      swap2\n    tag_91:\n      pop\n      pop\n      pop\n      pop\n      pop\n      dup2\n      jump\t// out\n        /* \"Artist.sol\":1395:1421  string public nameOfArtist */\n    tag_41:\n      0x01\n      dup1\n      sload\n      tag_88\n      swap1\n      tag_89\n      jump\t// in\n        /* \"Artist.sol\":3769:4591  function sell(uint _bidID) public onlyArtist {... */\n    tag_45:\n        /* \"Artist.sol\":1308:1314  artist */\n      and(sub(shl(0xa0, 0x01), 0x01), sload(0x00))\n        /* \"Artist.sol\":1318:1328  msg.sender */\n      caller\n        /* \"Artist.sol\":1308:1328  artist == msg.sender */\n      eq\n        /* \"Artist.sol\":1300:1344  require(artist == msg.sender,\"Only Artist!\") */\n      tag_101\n      jumpi\n      mload(0x40)\n      shl(0xe5, 0x461bcd)\n      dup2\n      mstore\n        /* \"#utility.yul\":4867:4869   */\n      0x20\n        /* \"Artist.sol\":1300:1344  require(artist == msg.sender,\"Only Artist!\") */\n      0x04\n      dup3\n      add\n        /* \"#utility.yul\":4849:4870   */\n      mstore\n        /* \"#utility.yul\":4906:4908   */\n      0x0c\n        /* \"#utility.yul\":4886:4904   */\n      0x24\n      dup3\n      add\n        /* \"#utility.yul\":4879:4909   */\n      mstore\n      shl(0xa0, 0x4f6e6c792041727469737421)\n        /* \"#utility.yul\":4925:4943   */\n      0x44\n      dup3\n      add\n        /* \"#utility.yul\":4918:4960   */\n      mstore\n        /* \"#utility.yul\":4977:4995   */\n      0x64\n      add\n        /* \"Artist.sol\":1300:1344  require(artist == msg.sender,\"Only Artist!\") */\n      tag_55\n        /* \"#utility.yul\":4665:5001   */\n      jump\n        /* \"Artist.sol\":1300:1344  require(artist == msg.sender,\"Only Artist!\") */\n    tag_101:\n        /* \"Artist.sol\":3832:3836  bids */\n      0x08\n        /* \"Artist.sol\":3837:3843  _bidID */\n      dup2\n        /* \"Artist.sol\":3832:3844  bids[_bidID] */\n      dup2\n      sload\n      dup2\n      lt\n      tag_105\n      jumpi\n      tag_105\n      tag_69\n      jump\t// in\n    tag_105:\n      0x00\n      swap2\n      dup3\n      mstore\n      0x20\n      swap1\n      swap2\n      keccak256\n        /* \"Artist.sol\":3832:3855  bids[_bidID].isComplete */\n      0x03\n        /* \"Artist.sol\":3832:3844  bids[_bidID] */\n      0x04\n      swap1\n      swap3\n      mul\n      add\n        /* \"Artist.sol\":3832:3855  bids[_bidID].isComplete */\n      add\n      sload\n      0xff\n      and\n        /* \"Artist.sol\":3832:3864  bids[_bidID].isComplete == false */\n      iszero\n        /* \"Artist.sol\":3824:3880  require(bids[_bidID].isComplete == false,\"Sold already\") */\n      tag_107\n      jumpi\n      mload(0x40)\n      shl(0xe5, 0x461bcd)\n      dup2\n      mstore\n        /* \"#utility.yul\":7043:7045   */\n      0x20\n        /* \"Artist.sol\":3824:3880  require(bids[_bidID].isComplete == false,\"Sold already\") */\n      0x04\n      dup3\n      add\n        /* \"#utility.yul\":7025:7046   */\n      mstore\n        /* \"#utility.yul\":7082:7084   */\n      0x0c\n        /* \"#utility.yul\":7062:7080   */\n      0x24\n      dup3\n      add\n        /* \"#utility.yul\":7055:7085   */\n      mstore\n      shl(0xa0, 0x536f6c6420616c7265616479)\n        /* \"#utility.yul\":7101:7119   */\n      0x44\n      dup3\n      add\n        /* \"#utility.yul\":7094:7136   */\n      mstore\n        /* \"#utility.yul\":7153:7171   */\n      0x64\n      add\n        /* \"Artist.sol\":3824:3880  require(bids[_bidID].isComplete == false,\"Sold already\") */\n      tag_55\n        /* \"#utility.yul\":6841:7177   */\n      jump\n        /* \"Artist.sol\":3824:3880  require(bids[_bidID].isComplete == false,\"Sold already\") */\n    tag_107:\n        /* \"Artist.sol\":3899:3907  artWorks */\n      0x07\n        /* \"Artist.sol\":3908:3912  bids */\n      0x08\n        /* \"Artist.sol\":3913:3919  _bidID */\n      dup3\n        /* \"Artist.sol\":3908:3920  bids[_bidID] */\n      dup2\n      sload\n      dup2\n      lt\n      tag_111\n      jumpi\n      tag_111\n      tag_69\n      jump\t// in\n    tag_111:\n      swap1\n      0x00\n      mstore\n      keccak256(0x00, 0x20)\n      swap1\n      0x04\n      mul\n      add\n        /* \"Artist.sol\":3908:3930  bids[_bidID].artWorkId */\n      0x00\n      add\n      sload\n        /* \"Artist.sol\":3899:3931  artWorks[bids[_bidID].artWorkId] */\n      dup2\n      sload\n      dup2\n      lt\n      tag_114\n      jumpi\n      tag_114\n      tag_69\n      jump\t// in\n    tag_114:\n      0x00\n      swap2\n      dup3\n      mstore\n      0x20\n      swap1\n      swap2\n      keccak256\n        /* \"Artist.sol\":3899:3938  artWorks[bids[_bidID].artWorkId].isSold */\n      0x05\n        /* \"Artist.sol\":3899:3931  artWorks[bids[_bidID].artWorkId] */\n      0x06\n      swap1\n      swap3\n      mul\n      add\n        /* \"Artist.sol\":3899:3938  artWorks[bids[_bidID].artWorkId].isSold */\n      add\n      sload\n      0xff\n      and\n        /* \"Artist.sol\":3899:3947  artWorks[bids[_bidID].artWorkId].isSold == false */\n      iszero\n        /* \"Artist.sol\":3891:3963  require(artWorks[bids[_bidID].artWorkId].isSold == false,\"Sold already\") */\n      tag_116\n      jumpi\n      mload(0x40)\n      shl(0xe5, 0x461bcd)\n      dup2\n      mstore\n        /* \"#utility.yul\":7043:7045   */\n      0x20\n        /* \"Artist.sol\":3891:3963  require(artWorks[bids[_bidID].artWorkId].isSold == false,\"Sold already\") */\n      0x04\n      dup3\n      add\n        /* \"#utility.yul\":7025:7046   */\n      mstore\n        /* \"#utility.yul\":7082:7084   */\n      0x0c\n        /* \"#utility.yul\":7062:7080   */\n      0x24\n      dup3\n      add\n        /* \"#utility.yul\":7055:7085   */\n      mstore\n      shl(0xa0, 0x536f6c6420616c7265616479)\n        /* \"#utility.yul\":7101:7119   */\n      0x44\n      dup3\n      add\n        /* \"#utility.yul\":7094:7136   */\n      mstore\n        /* \"#utility.yul\":7153:7171   */\n      0x64\n      add\n        /* \"Artist.sol\":3891:3963  require(artWorks[bids[_bidID].artWorkId].isSold == false,\"Sold already\") */\n      tag_55\n        /* \"#utility.yul\":6841:7177   */\n      jump\n        /* \"Artist.sol\":3891:3963  require(artWorks[bids[_bidID].artWorkId].isSold == false,\"Sold already\") */\n    tag_116:\n        /* \"Artist.sol\":4081:4085  cUSD */\n      sload(0x05)\n        /* \"Artist.sol\":4117:4121  bids */\n      0x08\n        /* \"Artist.sol\":4117:4129  bids[_bidID] */\n      dup1\n      sload\n      sub(shl(0xa0, 0x01), 0x01)\n        /* \"Artist.sol\":4081:4085  cUSD */\n      swap1\n      swap3\n      and\n      swap2\n        /* \"Artist.sol\":4074:4099  IERC20(cUSD).transferFrom */\n      0x23b872dd\n      swap2\n        /* \"Artist.sol\":4117:4121  bids */\n      swap1\n        /* \"Artist.sol\":4122:4128  _bidID */\n      dup5\n      swap1\n        /* \"Artist.sol\":4117:4129  bids[_bidID] */\n      dup2\n      lt\n      tag_119\n      jumpi\n      tag_119\n      tag_69\n      jump\t// in\n    tag_119:\n      swap1\n      0x00\n      mstore\n      keccak256(0x00, 0x20)\n      swap1\n      0x04\n      mul\n      add\n        /* \"Artist.sol\":4117:4136  bids[_bidID].bidder */\n      0x01\n      add\n      0x00\n      swap1\n      sload\n      swap1\n      0x0100\n      exp\n      swap1\n      div\n      sub(shl(0xa0, 0x01), 0x01)\n      and\n        /* \"Artist.sol\":4154:4164  msg.sender */\n      caller\n        /* \"Artist.sol\":4182:4186  bids */\n      0x08\n        /* \"Artist.sol\":4187:4193  _bidID */\n      dup6\n        /* \"Artist.sol\":4182:4194  bids[_bidID] */\n      dup2\n      sload\n      dup2\n      lt\n      tag_122\n      jumpi\n      tag_122\n      tag_69\n      jump\t// in\n    tag_122:\n      swap1\n      0x00\n      mstore\n      keccak256(0x00, 0x20)\n      swap1\n      0x04\n      mul\n      add\n        /* \"Artist.sol\":4182:4201  bids[_bidID].amount */\n      0x02\n      add\n      sload\n        /* \"Artist.sol\":4074:4215  IERC20(cUSD).transferFrom(... */\n      mload(0x40)\n      dup5\n      0xffffffff\n      and\n      0xe0\n      shl\n      dup2\n      mstore\n      0x04\n      add\n      tag_124\n      swap4\n      swap3\n      swap2\n      swap1\n      sub(shl(0xa0, 0x01), 0x01)\n        /* \"#utility.yul\":7463:7478   */\n      swap4\n      dup5\n      and\n        /* \"#utility.yul\":7445:7479   */\n      dup2\n      mstore\n        /* \"#utility.yul\":7515:7530   */\n      swap2\n      swap1\n      swap3\n      and\n        /* \"#utility.yul\":7510:7512   */\n      0x20\n        /* \"#utility.yul\":7495:7513   */\n      dup3\n      add\n        /* \"#utility.yul\":7488:7531   */\n      mstore\n        /* \"#utility.yul\":7562:7564   */\n      0x40\n        /* \"#utility.yul\":7547:7565   */\n      dup2\n      add\n        /* \"#utility.yul\":7540:7574   */\n      swap2\n      swap1\n      swap2\n      mstore\n        /* \"#utility.yul\":7372:7374   */\n      0x60\n        /* \"#utility.yul\":7357:7375   */\n      add\n      swap1\n        /* \"#utility.yul\":7182:7580   */\n      jump\n        /* \"Artist.sol\":4074:4215  IERC20(cUSD).transferFrom(... */\n    tag_124:\n      0x20\n      mload(0x40)\n      dup1\n      dup4\n      sub\n      dup2\n      0x00\n      dup8\n      gas\n      call\n      iszero\n      dup1\n      iszero\n      tag_127\n      jumpi\n      returndatasize\n      0x00\n      dup1\n      returndatacopy\n      revert(0x00, returndatasize)\n    tag_127:\n      pop\n      pop\n      pop\n      pop\n      mload(0x40)\n      returndatasize\n      not(0x1f)\n      0x1f\n      dup3\n      add\n      and\n      dup3\n      add\n      dup1\n      0x40\n      mstore\n      pop\n      dup2\n      add\n      swap1\n      tag_128\n      swap2\n      swap1\n      tag_129\n      jump\t// in\n    tag_128:\n        /* \"Artist.sol\":4053:4234  require(... */\n      tag_130\n      jumpi\n      mload(0x40)\n      shl(0xe5, 0x461bcd)\n      dup2\n      mstore\n        /* \"#utility.yul\":8069:8071   */\n      0x20\n        /* \"Artist.sol\":4053:4234  require(... */\n      0x04\n      dup3\n      add\n        /* \"#utility.yul\":8051:8072   */\n      mstore\n        /* \"#utility.yul\":8108:8109   */\n      0x06\n        /* \"#utility.yul\":8088:8106   */\n      0x24\n      dup3\n      add\n        /* \"#utility.yul\":8081:8110   */\n      mstore\n        /* \"#utility.yul\":8146:8154   */\n      0x4661696c65640000000000000000000000000000000000000000000000000000\n        /* \"#utility.yul\":8126:8144   */\n      0x44\n      dup3\n      add\n        /* \"#utility.yul\":8119:8155   */\n      mstore\n        /* \"#utility.yul\":8172:8190   */\n      0x64\n      add\n        /* \"Artist.sol\":4053:4234  require(... */\n      tag_55\n        /* \"#utility.yul\":7867:8196   */\n      jump\n        /* \"Artist.sol\":4053:4234  require(... */\n    tag_130:\n        /* \"Artist.sol\":4382:4386  bids */\n      0x08\n        /* \"Artist.sol\":4387:4393  _bidID */\n      dup2\n        /* \"Artist.sol\":4382:4394  bids[_bidID] */\n      dup2\n      sload\n      dup2\n      lt\n      tag_134\n      jumpi\n      tag_134\n      tag_69\n      jump\t// in\n    tag_134:\n      swap1\n      0x00\n      mstore\n      keccak256(0x00, 0x20)\n      swap1\n      0x04\n      mul\n      add\n        /* \"Artist.sol\":4382:4401  bids[_bidID].bidder */\n      0x01\n      add\n      0x00\n      swap1\n      sload\n      swap1\n      0x0100\n      exp\n      swap1\n      div\n      sub(shl(0xa0, 0x01), 0x01)\n      and\n        /* \"Artist.sol\":4340:4348  artWorks */\n      0x07\n        /* \"Artist.sol\":4349:4353  bids */\n      0x08\n        /* \"Artist.sol\":4354:4360  _bidID */\n      dup4\n        /* \"Artist.sol\":4349:4361  bids[_bidID] */\n      dup2\n      sload\n      dup2\n      lt\n      tag_137\n      jumpi\n      tag_137\n      tag_69\n      jump\t// in\n    tag_137:\n      swap1\n      0x00\n      mstore\n      keccak256(0x00, 0x20)\n      swap1\n      0x04\n      mul\n      add\n        /* \"Artist.sol\":4349:4371  bids[_bidID].artWorkId */\n      0x00\n      add\n      sload\n        /* \"Artist.sol\":4340:4372  artWorks[bids[_bidID].artWorkId] */\n      dup2\n      sload\n      dup2\n      lt\n      tag_140\n      jumpi\n      tag_140\n      tag_69\n      jump\t// in\n    tag_140:\n      swap1\n      0x00\n      mstore\n      keccak256(0x00, 0x20)\n      swap1\n      0x06\n      mul\n      add\n        /* \"Artist.sol\":4340:4379  artWorks[bids[_bidID].artWorkId].soldTo */\n      0x05\n      add\n      0x01\n        /* \"Artist.sol\":4340:4401  artWorks[bids[_bidID].artWorkId].soldTo = bids[_bidID].bidder */\n      0x0100\n      exp\n      dup2\n      sload\n      dup2\n      sub(shl(0xa0, 0x01), 0x01)\n      mul\n      not\n      and\n      swap1\n      dup4\n      sub(shl(0xa0, 0x01), 0x01)\n      and\n      mul\n      or\n      swap1\n      sstore\n      pop\n        /* \"Artist.sol\":4478:4482  true */\n      0x01\n        /* \"Artist.sol\":4452:4456  bids */\n      0x08\n        /* \"Artist.sol\":4457:4463  _bidID */\n      dup3\n        /* \"Artist.sol\":4452:4464  bids[_bidID] */\n      dup2\n      sload\n      dup2\n      lt\n      tag_143\n      jumpi\n      tag_143\n      tag_69\n      jump\t// in\n    tag_143:\n      swap1\n      0x00\n      mstore\n      keccak256(0x00, 0x20)\n      swap1\n      0x04\n      mul\n      add\n        /* \"Artist.sol\":4452:4475  bids[_bidID].isComplete */\n      0x03\n      add\n      0x00\n        /* \"Artist.sol\":4452:4482  bids[_bidID].isComplete = true */\n      0x0100\n      exp\n      dup2\n      sload\n      dup2\n      0xff\n      mul\n      not\n      and\n      swap1\n      dup4\n      iszero\n      iszero\n      mul\n      or\n      swap1\n      sstore\n      pop\n        /* \"Artist.sol\":4580:4584  true */\n      0x01\n        /* \"Artist.sol\":4538:4546  artWorks */\n      0x07\n        /* \"Artist.sol\":4547:4551  bids */\n      0x08\n        /* \"Artist.sol\":4552:4558  _bidID */\n      dup4\n        /* \"Artist.sol\":4547:4559  bids[_bidID] */\n      dup2\n      sload\n      dup2\n      lt\n      tag_146\n      jumpi\n      tag_146\n      tag_69\n      jump\t// in\n    tag_146:\n      swap1\n      0x00\n      mstore\n      keccak256(0x00, 0x20)\n      swap1\n      0x04\n      mul\n      add\n        /* \"Artist.sol\":4547:4569  bids[_bidID].artWorkId */\n      0x00\n      add\n      sload\n        /* \"Artist.sol\":4538:4570  artWorks[bids[_bidID].artWorkId] */\n      dup2\n      sload\n      dup2\n      lt\n      tag_149\n      jumpi\n      tag_149\n      tag_69\n      jump\t// in\n    tag_149:\n      0x00\n      swap2\n      dup3\n      mstore\n      0x20\n      swap1\n      swap2\n      keccak256\n      0x06\n      swap1\n      swap2\n      mul\n      add\n        /* \"Artist.sol\":4538:4577  artWorks[bids[_bidID].artWorkId].isSold */\n      0x05\n      add\n        /* \"Artist.sol\":4538:4584  artWorks[bids[_bidID].artWorkId].isSold = true */\n      dup1\n      sload\n      not(0xff)\n      and\n      swap2\n      iszero\n      iszero\n      swap2\n      swap1\n      swap2\n      or\n      swap1\n      sstore\n      pop\n        /* \"Artist.sol\":3769:4591  function sell(uint _bidID) public onlyArtist {... */\n      jump\t// out\n        /* \"Artist.sol\":1707:1733  ArtWork [] public artWorks */\n    tag_48:\n      0x07\n      dup2\n      dup2\n      sload\n      dup2\n      lt\n      tag_151\n      jumpi\n      0x00\n      dup1\n      revert\n    tag_151:\n      0x00\n      swap2\n      dup3\n      mstore\n      0x20\n      swap1\n      swap2\n      keccak256\n      0x06\n      swap1\n      swap2\n      mul\n      add\n      dup1\n      sload\n      0x01\n      dup3\n      add\n      dup1\n      sload\n      swap2\n      swap4\n      pop\n      swap1\n      tag_153\n      swap1\n      tag_89\n      jump\t// in\n    tag_153:\n      dup1\n      0x1f\n      add\n      0x20\n      dup1\n      swap2\n      div\n      mul\n      0x20\n      add\n      mload(0x40)\n      swap1\n      dup2\n      add\n      0x40\n      mstore\n      dup1\n      swap3\n      swap2\n      swap1\n      dup2\n      dup2\n      mstore\n      0x20\n      add\n      dup3\n      dup1\n      sload\n      tag_154\n      swap1\n      tag_89\n      jump\t// in\n    tag_154:\n      dup1\n      iszero\n      tag_155\n      jumpi\n      dup1\n      0x1f\n      lt\n      tag_156\n      jumpi\n      0x0100\n      dup1\n      dup4\n      sload\n      div\n      mul\n      dup4\n      mstore\n      swap2\n      0x20\n      add\n      swap2\n      jump(tag_155)\n    tag_156:\n      dup3\n      add\n      swap2\n      swap1\n      0x00\n      mstore\n      keccak256(0x00, 0x20)\n      swap1\n    tag_157:\n      dup2\n      sload\n      dup2\n      mstore\n      swap1\n      0x01\n      add\n      swap1\n      0x20\n      add\n      dup1\n      dup4\n      gt\n      tag_157\n      jumpi\n      dup3\n      swap1\n      sub\n      0x1f\n      and\n      dup3\n      add\n      swap2\n    tag_155:\n      pop\n      pop\n      pop\n      pop\n      pop\n      swap1\n      dup1\n      0x02\n      add\n      dup1\n      sload\n      tag_158\n      swap1\n      tag_89\n      jump\t// in\n    tag_158:\n      dup1\n      0x1f\n      add\n      0x20\n      dup1\n      swap2\n      div\n      mul\n      0x20\n      add\n      mload(0x40)\n      swap1\n      dup2\n      add\n      0x40\n      mstore\n      dup1\n      swap3\n      swap2\n      swap1\n      dup2\n      dup2\n      mstore\n      0x20\n      add\n      dup3\n      dup1\n      sload\n      tag_159\n      swap1\n      tag_89\n      jump\t// in\n    tag_159:\n      dup1\n      iszero\n      tag_160\n      jumpi\n      dup1\n      0x1f\n      lt\n      tag_161\n      jumpi\n      0x0100\n      dup1\n      dup4\n      sload\n      div\n      mul\n      dup4\n      mstore\n      swap2\n      0x20\n      add\n      swap2\n      jump(tag_160)\n    tag_161:\n      dup3\n      add\n      swap2\n      swap1\n      0x00\n      mstore\n      keccak256(0x00, 0x20)\n      swap1\n    tag_162:\n      dup2\n      sload\n      dup2\n      mstore\n      swap1\n      0x01\n      add\n      swap1\n      0x20\n      add\n      dup1\n      dup4\n      gt\n      tag_162\n      jumpi\n      dup3\n      swap1\n      sub\n      0x1f\n      and\n      dup3\n      add\n      swap2\n    tag_160:\n      pop\n      pop\n      pop\n      pop\n      pop\n      swap1\n      dup1\n      0x03\n      add\n      dup1\n      sload\n      tag_163\n      swap1\n      tag_89\n      jump\t// in\n    tag_163:\n      dup1\n      0x1f\n      add\n      0x20\n      dup1\n      swap2\n      div\n      mul\n      0x20\n      add\n      mload(0x40)\n      swap1\n      dup2\n      add\n      0x40\n      mstore\n      dup1\n      swap3\n      swap2\n      swap1\n      dup2\n      dup2\n      mstore\n      0x20\n      add\n      dup3\n      dup1\n      sload\n      tag_164\n      swap1\n      tag_89\n      jump\t// in\n    tag_164:\n      dup1\n      iszero\n      tag_165\n      jumpi\n      dup1\n      0x1f\n      lt\n      tag_166\n      jumpi\n      0x0100\n      dup1\n      dup4\n      sload\n      div\n      mul\n      dup4\n      mstore\n      swap2\n      0x20\n      add\n      swap2\n      jump(tag_165)\n    tag_166:\n      dup3\n      add\n      swap2\n      swap1\n      0x00\n      mstore\n      keccak256(0x00, 0x20)\n      swap1\n    tag_167:\n      dup2\n      sload\n      dup2\n      mstore\n      swap1\n      0x01\n      add\n      swap1\n      0x20\n      add\n      dup1\n      dup4\n      gt\n      tag_167\n      jumpi\n      dup3\n      swap1\n      sub\n      0x1f\n      and\n      dup3\n      add\n      swap2\n    tag_165:\n      pop\n      pop\n      pop\n      pop\n      0x04\n      dup4\n      add\n      sload\n      0x05\n      swap1\n      swap4\n      add\n      sload\n      swap2\n      swap3\n      swap2\n      0xff\n      dup2\n      and\n      swap2\n      pop\n      0x0100\n      swap1\n      div\n      sub(shl(0xa0, 0x01), 0x01)\n      and\n      dup8\n      jump\t// out\n    tag_60:\n      dup3\n      dup1\n      sload\n      tag_168\n      swap1\n      tag_89\n      jump\t// in\n    tag_168:\n      swap1\n      0x00\n      mstore\n      keccak256(0x00, 0x20)\n      swap1\n      0x1f\n      add\n      0x20\n      swap1\n      div\n      dup2\n      add\n      swap3\n      dup3\n      tag_170\n      jumpi\n      0x00\n      dup6\n      sstore\n      jump(tag_173)\n    tag_170:\n      dup3\n      0x1f\n      lt\n      tag_171\n      jumpi\n      dup1\n      mload\n      not(0xff)\n      and\n      dup4\n      dup1\n      add\n      or\n      dup6\n      sstore\n      jump(tag_173)\n    tag_171:\n      dup3\n      dup1\n      add\n      0x01\n      add\n      dup6\n      sstore\n      dup3\n      iszero\n      tag_173\n      jumpi\n      swap2\n      dup3\n      add\n    tag_172:\n      dup3\n      dup2\n      gt\n      iszero\n      tag_173\n      jumpi\n      dup3\n      mload\n      dup3\n      sstore\n      swap2\n      0x20\n      add\n      swap2\n      swap1\n      0x01\n      add\n      swap1\n      jump(tag_172)\n    tag_173:\n      pop\n      tag_174\n      swap3\n      swap2\n      pop\n      tag_175\n      jump\t// in\n    tag_174:\n      pop\n      swap1\n      jump\t// out\n    tag_175:\n    tag_176:\n      dup1\n      dup3\n      gt\n      iszero\n      tag_174\n      jumpi\n      0x00\n      dup2\n      sstore\n      0x01\n      add\n      jump(tag_176)\n        /* \"#utility.yul\":245:425   */\n    tag_20:\n        /* \"#utility.yul\":304:310   */\n      0x00\n        /* \"#utility.yul\":357:359   */\n      0x20\n        /* \"#utility.yul\":345:354   */\n      dup3\n        /* \"#utility.yul\":336:343   */\n      dup5\n        /* \"#utility.yul\":332:355   */\n      sub\n        /* \"#utility.yul\":328:360   */\n      slt\n        /* \"#utility.yul\":325:377   */\n      iszero\n      tag_184\n      jumpi\n        /* \"#utility.yul\":373:374   */\n      0x00\n        /* \"#utility.yul\":370:371   */\n      dup1\n        /* \"#utility.yul\":363:375   */\n      revert\n        /* \"#utility.yul\":325:377   */\n    tag_184:\n      pop\n        /* \"#utility.yul\":396:419   */\n      calldataload\n      swap2\n        /* \"#utility.yul\":245:425   */\n      swap1\n      pop\n      jump\t// out\n        /* \"#utility.yul\":885:1012   */\n    tag_178:\n        /* \"#utility.yul\":946:956   */\n      0x4e487b71\n        /* \"#utility.yul\":941:944   */\n      0xe0\n        /* \"#utility.yul\":937:957   */\n      shl\n        /* \"#utility.yul\":934:935   */\n      0x00\n        /* \"#utility.yul\":927:958   */\n      mstore\n        /* \"#utility.yul\":977:981   */\n      0x41\n        /* \"#utility.yul\":974:975   */\n      0x04\n        /* \"#utility.yul\":967:982   */\n      mstore\n        /* \"#utility.yul\":1001:1005   */\n      0x24\n        /* \"#utility.yul\":998:999   */\n      0x00\n        /* \"#utility.yul\":991:1006   */\n      revert\n        /* \"#utility.yul\":1017:1736   */\n    tag_179:\n        /* \"#utility.yul\":1060:1065   */\n      0x00\n        /* \"#utility.yul\":1113:1116   */\n      dup3\n        /* \"#utility.yul\":1106:1110   */\n      0x1f\n        /* \"#utility.yul\":1098:1104   */\n      dup4\n        /* \"#utility.yul\":1094:1111   */\n      add\n        /* \"#utility.yul\":1090:1117   */\n      slt\n        /* \"#utility.yul\":1080:1135   */\n      tag_188\n      jumpi\n        /* \"#utility.yul\":1131:1132   */\n      0x00\n        /* \"#utility.yul\":1128:1129   */\n      dup1\n        /* \"#utility.yul\":1121:1133   */\n      revert\n        /* \"#utility.yul\":1080:1135   */\n    tag_188:\n        /* \"#utility.yul\":1167:1173   */\n      dup2\n        /* \"#utility.yul\":1154:1174   */\n      calldataload\n        /* \"#utility.yul\":1193:1211   */\n      0xffffffffffffffff\n        /* \"#utility.yul\":1230:1232   */\n      dup1\n        /* \"#utility.yul\":1226:1228   */\n      dup3\n        /* \"#utility.yul\":1223:1233   */\n      gt\n        /* \"#utility.yul\":1220:1256   */\n      iszero\n      tag_190\n      jumpi\n        /* \"#utility.yul\":1236:1254   */\n      tag_190\n      tag_178\n      jump\t// in\n    tag_190:\n        /* \"#utility.yul\":1311:1313   */\n      0x40\n        /* \"#utility.yul\":1305:1314   */\n      mload\n        /* \"#utility.yul\":1279:1281   */\n      0x1f\n        /* \"#utility.yul\":1365:1378   */\n      dup4\n      add\n      not(0x1f)\n        /* \"#utility.yul\":1361:1383   */\n      swap1\n      dup2\n      and\n        /* \"#utility.yul\":1385:1387   */\n      0x3f\n        /* \"#utility.yul\":1357:1388   */\n      add\n        /* \"#utility.yul\":1353:1393   */\n      and\n        /* \"#utility.yul\":1341:1394   */\n      dup2\n      add\n      swap1\n        /* \"#utility.yul\":1409:1427   */\n      dup3\n      dup3\n      gt\n        /* \"#utility.yul\":1429:1451   */\n      dup2\n      dup4\n      lt\n        /* \"#utility.yul\":1406:1452   */\n      or\n        /* \"#utility.yul\":1403:1475   */\n      iszero\n      tag_192\n      jumpi\n        /* \"#utility.yul\":1455:1473   */\n      tag_192\n      tag_178\n      jump\t// in\n    tag_192:\n        /* \"#utility.yul\":1495:1505   */\n      dup2\n        /* \"#utility.yul\":1491:1493   */\n      0x40\n        /* \"#utility.yul\":1484:1506   */\n      mstore\n        /* \"#utility.yul\":1530:1532   */\n      dup4\n        /* \"#utility.yul\":1522:1528   */\n      dup2\n        /* \"#utility.yul\":1515:1533   */\n      mstore\n        /* \"#utility.yul\":1576:1579   */\n      dup7\n        /* \"#utility.yul\":1569:1573   */\n      0x20\n        /* \"#utility.yul\":1564:1566   */\n      dup6\n        /* \"#utility.yul\":1556:1562   */\n      dup9\n        /* \"#utility.yul\":1552:1567   */\n      add\n        /* \"#utility.yul\":1548:1574   */\n      add\n        /* \"#utility.yul\":1545:1580   */\n      gt\n        /* \"#utility.yul\":1542:1597   */\n      iszero\n      tag_193\n      jumpi\n        /* \"#utility.yul\":1593:1594   */\n      0x00\n        /* \"#utility.yul\":1590:1591   */\n      dup1\n        /* \"#utility.yul\":1583:1595   */\n      revert\n        /* \"#utility.yul\":1542:1597   */\n    tag_193:\n        /* \"#utility.yul\":1657:1659   */\n      dup4\n        /* \"#utility.yul\":1650:1654   */\n      0x20\n        /* \"#utility.yul\":1642:1648   */\n      dup8\n        /* \"#utility.yul\":1638:1655   */\n      add\n        /* \"#utility.yul\":1631:1635   */\n      0x20\n        /* \"#utility.yul\":1623:1629   */\n      dup4\n        /* \"#utility.yul\":1619:1636   */\n      add\n        /* \"#utility.yul\":1606:1660   */\n      calldatacopy\n        /* \"#utility.yul\":1704:1705   */\n      0x00\n        /* \"#utility.yul\":1697:1701   */\n      0x20\n        /* \"#utility.yul\":1692:1694   */\n      dup6\n        /* \"#utility.yul\":1684:1690   */\n      dup4\n        /* \"#utility.yul\":1680:1695   */\n      add\n        /* \"#utility.yul\":1676:1702   */\n      add\n        /* \"#utility.yul\":1669:1706   */\n      mstore\n        /* \"#utility.yul\":1724:1730   */\n      dup1\n        /* \"#utility.yul\":1715:1730   */\n      swap5\n      pop\n      pop\n      pop\n      pop\n      pop\n        /* \"#utility.yul\":1017:1736   */\n      swap3\n      swap2\n      pop\n      pop\n      jump\t// out\n        /* \"#utility.yul\":1741:2553   */\n    tag_26:\n        /* \"#utility.yul\":1857:1863   */\n      0x00\n        /* \"#utility.yul\":1865:1871   */\n      dup1\n        /* \"#utility.yul\":1873:1879   */\n      0x00\n        /* \"#utility.yul\":1881:1887   */\n      dup1\n        /* \"#utility.yul\":1934:1937   */\n      0x80\n        /* \"#utility.yul\":1922:1931   */\n      dup6\n        /* \"#utility.yul\":1913:1920   */\n      dup8\n        /* \"#utility.yul\":1909:1932   */\n      sub\n        /* \"#utility.yul\":1905:1938   */\n      slt\n        /* \"#utility.yul\":1902:1955   */\n      iszero\n      tag_195\n      jumpi\n        /* \"#utility.yul\":1951:1952   */\n      0x00\n        /* \"#utility.yul\":1948:1949   */\n      dup1\n        /* \"#utility.yul\":1941:1953   */\n      revert\n        /* \"#utility.yul\":1902:1955   */\n    tag_195:\n        /* \"#utility.yul\":1991:2000   */\n      dup5\n        /* \"#utility.yul\":1978:2001   */\n      calldataload\n        /* \"#utility.yul\":2020:2038   */\n      0xffffffffffffffff\n        /* \"#utility.yul\":2061:2063   */\n      dup1\n        /* \"#utility.yul\":2053:2059   */\n      dup3\n        /* \"#utility.yul\":2050:2064   */\n      gt\n        /* \"#utility.yul\":2047:2081   */\n      iszero\n      tag_196\n      jumpi\n        /* \"#utility.yul\":2077:2078   */\n      0x00\n        /* \"#utility.yul\":2074:2075   */\n      dup1\n        /* \"#utility.yul\":2067:2079   */\n      revert\n        /* \"#utility.yul\":2047:2081   */\n    tag_196:\n        /* \"#utility.yul\":2100:2150   */\n      tag_197\n        /* \"#utility.yul\":2142:2149   */\n      dup9\n        /* \"#utility.yul\":2133:2139   */\n      dup4\n        /* \"#utility.yul\":2122:2131   */\n      dup10\n        /* \"#utility.yul\":2118:2140   */\n      add\n        /* \"#utility.yul\":2100:2150   */\n      tag_179\n      jump\t// in\n    tag_197:\n        /* \"#utility.yul\":2090:2150   */\n      swap6\n      pop\n        /* \"#utility.yul\":2203:2205   */\n      0x20\n        /* \"#utility.yul\":2192:2201   */\n      dup8\n        /* \"#utility.yul\":2188:2206   */\n      add\n        /* \"#utility.yul\":2175:2207   */\n      calldataload\n        /* \"#utility.yul\":2159:2207   */\n      swap2\n      pop\n        /* \"#utility.yul\":2232:2234   */\n      dup1\n        /* \"#utility.yul\":2222:2230   */\n      dup3\n        /* \"#utility.yul\":2219:2235   */\n      gt\n        /* \"#utility.yul\":2216:2252   */\n      iszero\n      tag_198\n      jumpi\n        /* \"#utility.yul\":2248:2249   */\n      0x00\n        /* \"#utility.yul\":2245:2246   */\n      dup1\n        /* \"#utility.yul\":2238:2250   */\n      revert\n        /* \"#utility.yul\":2216:2252   */\n    tag_198:\n        /* \"#utility.yul\":2271:2323   */\n      tag_199\n        /* \"#utility.yul\":2315:2322   */\n      dup9\n        /* \"#utility.yul\":2304:2312   */\n      dup4\n        /* \"#utility.yul\":2293:2302   */\n      dup10\n        /* \"#utility.yul\":2289:2313   */\n      add\n        /* \"#utility.yul\":2271:2323   */\n      tag_179\n      jump\t// in\n    tag_199:\n        /* \"#utility.yul\":2261:2323   */\n      swap5\n      pop\n        /* \"#utility.yul\":2376:2378   */\n      0x40\n        /* \"#utility.yul\":2365:2374   */\n      dup8\n        /* \"#utility.yul\":2361:2379   */\n      add\n        /* \"#utility.yul\":2348:2380   */\n      calldataload\n        /* \"#utility.yul\":2332:2380   */\n      swap2\n      pop\n        /* \"#utility.yul\":2405:2407   */\n      dup1\n        /* \"#utility.yul\":2395:2403   */\n      dup3\n        /* \"#utility.yul\":2392:2408   */\n      gt\n        /* \"#utility.yul\":2389:2425   */\n      iszero\n      tag_200\n      jumpi\n        /* \"#utility.yul\":2421:2422   */\n      0x00\n        /* \"#utility.yul\":2418:2419   */\n      dup1\n        /* \"#utility.yul\":2411:2423   */\n      revert\n        /* \"#utility.yul\":2389:2425   */\n    tag_200:\n      pop\n        /* \"#utility.yul\":2444:2496   */\n      tag_201\n        /* \"#utility.yul\":2488:2495   */\n      dup8\n        /* \"#utility.yul\":2477:2485   */\n      dup3\n        /* \"#utility.yul\":2466:2475   */\n      dup9\n        /* \"#utility.yul\":2462:2486   */\n      add\n        /* \"#utility.yul\":2444:2496   */\n      tag_179\n      jump\t// in\n    tag_201:\n        /* \"#utility.yul\":1741:2553   */\n      swap5\n      swap8\n      swap4\n      swap7\n      pop\n        /* \"#utility.yul\":2434:2496   */\n      swap4\n      swap5\n        /* \"#utility.yul\":2543:2545   */\n      0x60\n        /* \"#utility.yul\":2528:2546   */\n      add\n        /* \"#utility.yul\":2515:2547   */\n      calldataload\n      swap4\n      pop\n      pop\n      pop\n        /* \"#utility.yul\":1741:2553   */\n      jump\t// out\n        /* \"#utility.yul\":2558:2806   */\n    tag_30:\n        /* \"#utility.yul\":2626:2632   */\n      0x00\n        /* \"#utility.yul\":2634:2640   */\n      dup1\n        /* \"#utility.yul\":2687:2689   */\n      0x40\n        /* \"#utility.yul\":2675:2684   */\n      dup4\n        /* \"#utility.yul\":2666:2673   */\n      dup6\n        /* \"#utility.yul\":2662:2685   */\n      sub\n        /* \"#utility.yul\":2658:2690   */\n      slt\n        /* \"#utility.yul\":2655:2707   */\n      iszero\n      tag_203\n      jumpi\n        /* \"#utility.yul\":2703:2704   */\n      0x00\n        /* \"#utility.yul\":2700:2701   */\n      dup1\n        /* \"#utility.yul\":2693:2705   */\n      revert\n        /* \"#utility.yul\":2655:2707   */\n    tag_203:\n      pop\n      pop\n        /* \"#utility.yul\":2726:2749   */\n      dup1\n      calldataload\n      swap3\n        /* \"#utility.yul\":2796:2798   */\n      0x20\n        /* \"#utility.yul\":2781:2799   */\n      swap1\n      swap2\n      add\n        /* \"#utility.yul\":2768:2800   */\n      calldataload\n      swap2\n      pop\n        /* \"#utility.yul\":2558:2806   */\n      jump\t// out\n        /* \"#utility.yul\":2811:3283   */\n    tag_180:\n        /* \"#utility.yul\":2853:2856   */\n      0x00\n        /* \"#utility.yul\":2891:2896   */\n      dup2\n        /* \"#utility.yul\":2885:2897   */\n      mload\n        /* \"#utility.yul\":2918:2924   */\n      dup1\n        /* \"#utility.yul\":2913:2916   */\n      dup5\n        /* \"#utility.yul\":2906:2925   */\n      mstore\n        /* \"#utility.yul\":2943:2944   */\n      0x00\n        /* \"#utility.yul\":2953:3115   */\n    tag_205:\n        /* \"#utility.yul\":2967:2973   */\n      dup2\n        /* \"#utility.yul\":2964:2965   */\n      dup2\n        /* \"#utility.yul\":2961:2974   */\n      lt\n        /* \"#utility.yul\":2953:3115   */\n      iszero\n      tag_207\n      jumpi\n        /* \"#utility.yul\":3029:3033   */\n      0x20\n        /* \"#utility.yul\":3085:3098   */\n      dup2\n      dup6\n      add\n        /* \"#utility.yul\":3081:3103   */\n      dup2\n      add\n        /* \"#utility.yul\":3075:3104   */\n      mload\n        /* \"#utility.yul\":3057:3068   */\n      dup7\n      dup4\n      add\n        /* \"#utility.yul\":3053:3073   */\n      dup3\n      add\n        /* \"#utility.yul\":3046:3105   */\n      mstore\n        /* \"#utility.yul\":2982:2994   */\n      add\n        /* \"#utility.yul\":2953:3115   */\n      jump(tag_205)\n    tag_207:\n        /* \"#utility.yul\":3133:3139   */\n      dup2\n        /* \"#utility.yul\":3130:3131   */\n      dup2\n        /* \"#utility.yul\":3127:3140   */\n      gt\n        /* \"#utility.yul\":3124:3211   */\n      iszero\n      tag_208\n      jumpi\n        /* \"#utility.yul\":3199:3200   */\n      0x00\n        /* \"#utility.yul\":3192:3196   */\n      0x20\n        /* \"#utility.yul\":3183:3189   */\n      dup4\n        /* \"#utility.yul\":3178:3181   */\n      dup8\n        /* \"#utility.yul\":3174:3190   */\n      add\n        /* \"#utility.yul\":3170:3197   */\n      add\n        /* \"#utility.yul\":3163:3201   */\n      mstore\n        /* \"#utility.yul\":3124:3211   */\n    tag_208:\n      pop\n        /* \"#utility.yul\":3265:3267   */\n      0x1f\n        /* \"#utility.yul\":3244:3259   */\n      add\n      not(0x1f)\n        /* \"#utility.yul\":3240:3269   */\n      and\n        /* \"#utility.yul\":3231:3270   */\n      swap3\n      swap1\n      swap3\n      add\n        /* \"#utility.yul\":3272:3276   */\n      0x20\n        /* \"#utility.yul\":3227:3277   */\n      add\n      swap3\n        /* \"#utility.yul\":2811:3283   */\n      swap2\n      pop\n      pop\n      jump\t// out\n        /* \"#utility.yul\":3288:3508   */\n    tag_35:\n        /* \"#utility.yul\":3437:3439   */\n      0x20\n        /* \"#utility.yul\":3426:3435   */\n      dup2\n        /* \"#utility.yul\":3419:3440   */\n      mstore\n        /* \"#utility.yul\":3400:3404   */\n      0x00\n        /* \"#utility.yul\":3457:3502   */\n      tag_210\n        /* \"#utility.yul\":3498:3500   */\n      0x20\n        /* \"#utility.yul\":3487:3496   */\n      dup4\n        /* \"#utility.yul\":3483:3501   */\n      add\n        /* \"#utility.yul\":3475:3481   */\n      dup5\n        /* \"#utility.yul\":3457:3502   */\n      tag_180\n      jump\t// in\n    tag_210:\n        /* \"#utility.yul\":3449:3502   */\n      swap4\n        /* \"#utility.yul\":3288:3508   */\n      swap3\n      pop\n      pop\n      pop\n      jump\t// out\n        /* \"#utility.yul\":3766:4660   */\n    tag_50:\n        /* \"#utility.yul\":4117:4123   */\n      dup8\n        /* \"#utility.yul\":4106:4115   */\n      dup2\n        /* \"#utility.yul\":4099:4124   */\n      mstore\n        /* \"#utility.yul\":4160:4163   */\n      0xe0\n        /* \"#utility.yul\":4155:4157   */\n      0x20\n        /* \"#utility.yul\":4144:4153   */\n      dup3\n        /* \"#utility.yul\":4140:4158   */\n      add\n        /* \"#utility.yul\":4133:4164   */\n      mstore\n        /* \"#utility.yul\":4080:4084   */\n      0x00\n        /* \"#utility.yul\":4187:4233   */\n      tag_213\n        /* \"#utility.yul\":4228:4231   */\n      0xe0\n        /* \"#utility.yul\":4217:4226   */\n      dup4\n        /* \"#utility.yul\":4213:4232   */\n      add\n        /* \"#utility.yul\":4205:4211   */\n      dup10\n        /* \"#utility.yul\":4187:4233   */\n      tag_180\n      jump\t// in\n    tag_213:\n        /* \"#utility.yul\":4281:4290   */\n      dup3\n        /* \"#utility.yul\":4273:4279   */\n      dup2\n        /* \"#utility.yul\":4269:4291   */\n      sub\n        /* \"#utility.yul\":4264:4266   */\n      0x40\n        /* \"#utility.yul\":4253:4262   */\n      dup5\n        /* \"#utility.yul\":4249:4267   */\n      add\n        /* \"#utility.yul\":4242:4292   */\n      mstore\n        /* \"#utility.yul\":4315:4348   */\n      tag_214\n        /* \"#utility.yul\":4341:4347   */\n      dup2\n        /* \"#utility.yul\":4333:4339   */\n      dup10\n        /* \"#utility.yul\":4315:4348   */\n      tag_180\n      jump\t// in\n    tag_214:\n        /* \"#utility.yul\":4301:4348   */\n      swap1\n      pop\n        /* \"#utility.yul\":4396:4405   */\n      dup3\n        /* \"#utility.yul\":4388:4394   */\n      dup2\n        /* \"#utility.yul\":4384:4406   */\n      sub\n        /* \"#utility.yul\":4379:4381   */\n      0x60\n        /* \"#utility.yul\":4368:4377   */\n      dup5\n        /* \"#utility.yul\":4364:4382   */\n      add\n        /* \"#utility.yul\":4357:4407   */\n      mstore\n        /* \"#utility.yul\":4424:4457   */\n      tag_215\n        /* \"#utility.yul\":4450:4456   */\n      dup2\n        /* \"#utility.yul\":4442:4448   */\n      dup9\n        /* \"#utility.yul\":4424:4457   */\n      tag_180\n      jump\t// in\n    tag_215:\n        /* \"#utility.yul\":4488:4491   */\n      0x80\n        /* \"#utility.yul\":4473:4492   */\n      dup5\n      add\n        /* \"#utility.yul\":4466:4501   */\n      swap7\n      swap1\n      swap7\n      mstore\n      pop\n      pop\n        /* \"#utility.yul\":4545:4559   */\n      swap2\n      iszero\n        /* \"#utility.yul\":4538:4560   */\n      iszero\n        /* \"#utility.yul\":4532:4535   */\n      0xa0\n        /* \"#utility.yul\":4517:4536   */\n      dup4\n      add\n        /* \"#utility.yul\":4510:4561   */\n      mstore\n      sub(shl(0xa0, 0x01), 0x01)\n        /* \"#utility.yul\":4598:4653   */\n      and\n        /* \"#utility.yul\":4592:4595   */\n      0xc0\n        /* \"#utility.yul\":4577:4596   */\n      swap1\n      swap2\n      add\n        /* \"#utility.yul\":4570:4654   */\n      mstore\n        /* \"#utility.yul\":4416:4457   */\n      swap5\n        /* \"#utility.yul\":3766:4660   */\n      swap4\n      pop\n      pop\n      pop\n      pop\n      jump\t// out\n        /* \"#utility.yul\":5006:5231   */\n    tag_64:\n        /* \"#utility.yul\":5046:5049   */\n      0x00\n        /* \"#utility.yul\":5077:5078   */\n      dup3\n        /* \"#utility.yul\":5073:5079   */\n      not\n        /* \"#utility.yul\":5070:5071   */\n      dup3\n        /* \"#utility.yul\":5067:5080   */\n      gt\n        /* \"#utility.yul\":5064:5200   */\n      iszero\n      tag_218\n      jumpi\n        /* \"#utility.yul\":5122:5132   */\n      0x4e487b71\n        /* \"#utility.yul\":5117:5120   */\n      0xe0\n        /* \"#utility.yul\":5113:5133   */\n      shl\n        /* \"#utility.yul\":5110:5111   */\n      0x00\n        /* \"#utility.yul\":5103:5134   */\n      mstore\n        /* \"#utility.yul\":5157:5161   */\n      0x11\n        /* \"#utility.yul\":5154:5155   */\n      0x04\n        /* \"#utility.yul\":5147:5162   */\n      mstore\n        /* \"#utility.yul\":5185:5189   */\n      0x24\n        /* \"#utility.yul\":5182:5183   */\n      0x00\n        /* \"#utility.yul\":5175:5190   */\n      revert\n        /* \"#utility.yul\":5064:5200   */\n    tag_218:\n      pop\n        /* \"#utility.yul\":5216:5225   */\n      add\n      swap1\n        /* \"#utility.yul\":5006:5231   */\n      jump\t// out\n        /* \"#utility.yul\":5236:5363   */\n    tag_69:\n        /* \"#utility.yul\":5297:5307   */\n      0x4e487b71\n        /* \"#utility.yul\":5292:5295   */\n      0xe0\n        /* \"#utility.yul\":5288:5308   */\n      shl\n        /* \"#utility.yul\":5285:5286   */\n      0x00\n        /* \"#utility.yul\":5278:5309   */\n      mstore\n        /* \"#utility.yul\":5328:5332   */\n      0x32\n        /* \"#utility.yul\":5325:5326   */\n      0x04\n        /* \"#utility.yul\":5318:5333   */\n      mstore\n        /* \"#utility.yul\":5352:5356   */\n      0x24\n        /* \"#utility.yul\":5349:5350   */\n      0x00\n        /* \"#utility.yul\":5342:5357   */\n      revert\n        /* \"#utility.yul\":6456:6836   */\n    tag_89:\n        /* \"#utility.yul\":6535:6536   */\n      0x01\n        /* \"#utility.yul\":6531:6543   */\n      dup2\n      dup2\n      shr\n      swap1\n        /* \"#utility.yul\":6578:6590   */\n      dup3\n      and\n      dup1\n        /* \"#utility.yul\":6599:6660   */\n      tag_224\n      jumpi\n        /* \"#utility.yul\":6653:6657   */\n      0x7f\n        /* \"#utility.yul\":6645:6651   */\n      dup3\n        /* \"#utility.yul\":6641:6658   */\n      and\n        /* \"#utility.yul\":6631:6658   */\n      swap2\n      pop\n        /* \"#utility.yul\":6599:6660   */\n    tag_224:\n        /* \"#utility.yul\":6706:6708   */\n      0x20\n        /* \"#utility.yul\":6698:6704   */\n      dup3\n        /* \"#utility.yul\":6695:6709   */\n      lt\n        /* \"#utility.yul\":6675:6693   */\n      dup2\n        /* \"#utility.yul\":6672:6710   */\n      sub\n        /* \"#utility.yul\":6669:6830   */\n      tag_225\n      jumpi\n        /* \"#utility.yul\":6752:6762   */\n      0x4e487b71\n        /* \"#utility.yul\":6747:6750   */\n      0xe0\n        /* \"#utility.yul\":6743:6763   */\n      shl\n        /* \"#utility.yul\":6740:6741   */\n      0x00\n        /* \"#utility.yul\":6733:6764   */\n      mstore\n        /* \"#utility.yul\":6787:6791   */\n      0x22\n        /* \"#utility.yul\":6784:6785   */\n      0x04\n        /* \"#utility.yul\":6777:6792   */\n      mstore\n        /* \"#utility.yul\":6815:6819   */\n      0x24\n        /* \"#utility.yul\":6812:6813   */\n      0x00\n        /* \"#utility.yul\":6805:6820   */\n      revert\n        /* \"#utility.yul\":6669:6830   */\n    tag_225:\n      pop\n        /* \"#utility.yul\":6456:6836   */\n      swap2\n      swap1\n      pop\n      jump\t// out\n        /* \"#utility.yul\":7585:7862   */\n    tag_129:\n        /* \"#utility.yul\":7652:7658   */\n      0x00\n        /* \"#utility.yul\":7705:7707   */\n      0x20\n        /* \"#utility.yul\":7693:7702   */\n      dup3\n        /* \"#utility.yul\":7684:7691   */\n      dup5\n        /* \"#utility.yul\":7680:7703   */\n      sub\n        /* \"#utility.yul\":7676:7708   */\n      slt\n        /* \"#utility.yul\":7673:7725   */\n      iszero\n      tag_229\n      jumpi\n        /* \"#utility.yul\":7721:7722   */\n      0x00\n        /* \"#utility.yul\":7718:7719   */\n      dup1\n        /* \"#utility.yul\":7711:7723   */\n      revert\n        /* \"#utility.yul\":7673:7725   */\n    tag_229:\n        /* \"#utility.yul\":7753:7762   */\n      dup2\n        /* \"#utility.yul\":7747:7763   */\n      mload\n        /* \"#utility.yul\":7806:7811   */\n      dup1\n        /* \"#utility.yul\":7799:7812   */\n      iszero\n        /* \"#utility.yul\":7792:7813   */\n      iszero\n        /* \"#utility.yul\":7785:7790   */\n      dup2\n        /* \"#utility.yul\":7782:7814   */\n      eq\n        /* \"#utility.yul\":7772:7832   */\n      tag_210\n      jumpi\n        /* \"#utility.yul\":7828:7829   */\n      0x00\n        /* \"#utility.yul\":7825:7826   */\n      dup1\n        /* \"#utility.yul\":7818:7830   */\n      revert\n\n    auxdata: 0xa26469706673582212204aa15f47e2df158a35271cc66f4cb7ce278ab0b063853b3fbff6cce110c334ed64736f6c634300080d0033\n}\n",
    "bytecode": {
      "linkReferences": {},
      "object": "6080604052600580546001600160a01b03191673874069fa1eb16d44d622f2e0ca25eea172369bc117905560006006553480156200003c57600080fd5b506040516200134d3803806200134d8339810160408190526200005f9162000218565b600080546001600160a01b03191633179055815162000086906001906020850190620000a5565b5080516200009c906002906020840190620000a5565b505050620002be565b828054620000b39062000282565b90600052602060002090601f016020900481019282620000d7576000855562000122565b82601f10620000f257805160ff191683800117855562000122565b8280016001018555821562000122579182015b828111156200012257825182559160200191906001019062000105565b506200013092915062000134565b5090565b5b8082111562000130576000815560010162000135565b634e487b7160e01b600052604160045260246000fd5b600082601f8301126200017357600080fd5b81516001600160401b03808211156200019057620001906200014b565b604051601f8301601f19908116603f01168101908282118183101715620001bb57620001bb6200014b565b81604052838152602092508683858801011115620001d857600080fd5b600091505b83821015620001fc5785820183015181830184015290820190620001dd565b838211156200020e5760008385830101525b9695505050505050565b600080604083850312156200022c57600080fd5b82516001600160401b03808211156200024457600080fd5b620002528683870162000161565b935060208501519150808211156200026957600080fd5b50620002788582860162000161565b9150509250929050565b600181811c908216806200029757607f821691505b602082108103620002b857634e487b7160e01b600052602260045260246000fd5b50919050565b61107f80620002ce6000396000f3fe608060405234801561001057600080fd5b50600436106100a35760003560e01c806380a79d5f11610076578063c11ca8191161005b578063c11ca8191461016d578063e4849b3214610175578063e89e025c1461018857600080fd5b806380a79d5f1461013d578063a87d942c1461015257600080fd5b806343bc1612146100a85780634423c5f1146100d85780634628d86314610115578063598647f81461012a575b600080fd5b6000546100bb906001600160a01b031681565b6040516001600160a01b0390911681526020015b60405180910390f35b6100eb6100e6366004610d74565b6101ae565b604080519485526001600160a01b03909316602085015291830152151560608201526080016100cf565b610128610123366004610e30565b6101f4565b005b610128610138366004610ec0565b6103df565b610145610694565b6040516100cf9190610f2f565b600354600454604080519283526020830191909152016100cf565b610145610722565b610128610183366004610d74565b61072f565b61019b610196366004610d74565b610ae8565b6040516100cf9796959493929190610f49565b600881815481106101be57600080fd5b600091825260209091206004909102018054600182015460028301546003909301549193506001600160a01b0316919060ff1684565b6000546001600160a01b031633146102425760405162461bcd60e51b815260206004820152600c60248201526b4f6e6c79204172746973742160a01b60448201526064015b60405180910390fd5b6040805160e08101825260068054825260208083018881529383018790526060830186905260808301859052600060a0840181905260c08401819052600780546001810182559152835192027fa66cc928b5edb82af9bd49922954155ab7b0942694bea4ce44661d9a8736c688810192835593518051939485946102ee937fa66cc928b5edb82af9bd49922954155ab7b0942694bea4ce44661d9a8736c6899092019290910190610cdb565b506040820151805161030a916002840191602090910190610cdb565b5060608201518051610326916003840191602090910190610cdb565b506080820151600482015560a08201516005909101805460c0909301516001600160a01b0316610100027fffffffffffffffffffffff0000000000000000000000000000000000000000ff921515929092167fffffffffffffffffffffff0000000000000000000000000000000000000000009093169290921717905560068054600191906000906103b9908490610fb1565b925050819055506001600360008282546103d39190610fb1565b90915550505050505050565b81600783815481106103f3576103f3610fd7565b906000526020600020906006020160000154146104525760405162461bcd60e51b815260206004820152600860248201527f57726f6e672069640000000000000000000000000000000000000000000000006044820152606401610239565b6007828154811061046557610465610fd7565b600091825260209091206005600690920201015460ff16156104c95760405162461bcd60e51b815260206004820152600960248201527f536f6c64206f75742100000000000000000000000000000000000000000000006044820152606401610239565b600782815481106104dc576104dc610fd7565b9060005260206000209060060201600401548110156105635760405162461bcd60e51b815260206004820152602e60248201527f4d616b652073757265207468617420796f752061746c656174206d617463682060448201527f74686520626173652070726963650000000000000000000000000000000000006064820152608401610239565b604080516080810182528381523360208201908152918101838152600060608301818152600880546001808201835591845285517ff3f7a9fe364faab93b216da50a3214154f22a0a2b415b23a84c8169e8b636ee360049283029081019190915596517ff3f7a9fe364faab93b216da50a3214154f22a0a2b415b23a84c8169e8b636ee4880180547fffffffffffffffffffffffff0000000000000000000000000000000000000000166001600160a01b0390921691909117905593517ff3f7a9fe364faab93b216da50a3214154f22a0a2b415b23a84c8169e8b636ee587015590517ff3f7a9fe364faab93b216da50a3214154f22a0a2b415b23a84c8169e8b636ee6909501805460ff191695151595909517909455815492939261068a908490610fb1565b9091555050505050565b600280546106a190610fed565b80601f01602080910402602001604051908101604052809291908181526020018280546106cd90610fed565b801561071a5780601f106106ef5761010080835404028352916020019161071a565b820191906000526020600020905b8154815290600101906020018083116106fd57829003601f168201915b505050505081565b600180546106a190610fed565b6000546001600160a01b031633146107785760405162461bcd60e51b815260206004820152600c60248201526b4f6e6c79204172746973742160a01b6044820152606401610239565b6008818154811061078b5761078b610fd7565b600091825260209091206003600490920201015460ff16156107de5760405162461bcd60e51b815260206004820152600c60248201526b536f6c6420616c726561647960a01b6044820152606401610239565b6007600882815481106107f3576107f3610fd7565b9060005260206000209060040201600001548154811061081557610815610fd7565b600091825260209091206005600690920201015460ff16156108685760405162461bcd60e51b815260206004820152600c60248201526b536f6c6420616c726561647960a01b6044820152606401610239565b600554600880546001600160a01b03909216916323b872dd91908490811061089257610892610fd7565b906000526020600020906004020160010160009054906101000a90046001600160a01b031633600885815481106108cb576108cb610fd7565b9060005260206000209060040201600201546040518463ffffffff1660e01b815260040161091a939291906001600160a01b039384168152919092166020820152604081019190915260600190565b6020604051808303816000875af1158015610939573d6000803e3d6000fd5b505050506040513d601f19601f8201168201806040525081019061095d9190611027565b6109a95760405162461bcd60e51b815260206004820152600660248201527f4661696c656400000000000000000000000000000000000000000000000000006044820152606401610239565b600881815481106109bc576109bc610fd7565b906000526020600020906004020160010160009054906101000a90046001600160a01b03166007600883815481106109f6576109f6610fd7565b90600052602060002090600402016000015481548110610a1857610a18610fd7565b906000526020600020906006020160050160016101000a8154816001600160a01b0302191690836001600160a01b03160217905550600160088281548110610a6257610a62610fd7565b906000526020600020906004020160030160006101000a81548160ff0219169083151502179055506001600760088381548110610aa157610aa1610fd7565b90600052602060002090600402016000015481548110610ac357610ac3610fd7565b60009182526020909120600690910201600501805460ff191691151591909117905550565b60078181548110610af857600080fd5b60009182526020909120600690910201805460018201805491935090610b1d90610fed565b80601f0160208091040260200160405190810160405280929190818152602001828054610b4990610fed565b8015610b965780601f10610b6b57610100808354040283529160200191610b96565b820191906000526020600020905b815481529060010190602001808311610b7957829003601f168201915b505050505090806002018054610bab90610fed565b80601f0160208091040260200160405190810160405280929190818152602001828054610bd790610fed565b8015610c245780601f10610bf957610100808354040283529160200191610c24565b820191906000526020600020905b815481529060010190602001808311610c0757829003601f168201915b505050505090806003018054610c3990610fed565b80601f0160208091040260200160405190810160405280929190818152602001828054610c6590610fed565b8015610cb25780601f10610c8757610100808354040283529160200191610cb2565b820191906000526020600020905b815481529060010190602001808311610c9557829003601f168201915b50505050600483015460059093015491929160ff8116915061010090046001600160a01b031687565b828054610ce790610fed565b90600052602060002090601f016020900481019282610d095760008555610d4f565b82601f10610d2257805160ff1916838001178555610d4f565b82800160010185558215610d4f579182015b82811115610d4f578251825591602001919060010190610d34565b50610d5b929150610d5f565b5090565b5b80821115610d5b5760008155600101610d60565b600060208284031215610d8657600080fd5b5035919050565b634e487b7160e01b600052604160045260246000fd5b600082601f830112610db457600080fd5b813567ffffffffffffffff80821115610dcf57610dcf610d8d565b604051601f8301601f19908116603f01168101908282118183101715610df757610df7610d8d565b81604052838152866020858801011115610e1057600080fd5b836020870160208301376000602085830101528094505050505092915050565b60008060008060808587031215610e4657600080fd5b843567ffffffffffffffff80821115610e5e57600080fd5b610e6a88838901610da3565b95506020870135915080821115610e8057600080fd5b610e8c88838901610da3565b94506040870135915080821115610ea257600080fd5b50610eaf87828801610da3565b949793965093946060013593505050565b60008060408385031215610ed357600080fd5b50508035926020909101359150565b6000815180845260005b81811015610f0857602081850181015186830182015201610eec565b81811115610f1a576000602083870101525b50601f01601f19169290920160200192915050565b602081526000610f426020830184610ee2565b9392505050565b87815260e060208201526000610f6260e0830189610ee2565b8281036040840152610f748189610ee2565b90508281036060840152610f888188610ee2565b6080840196909652505091151560a08301526001600160a01b031660c090910152949350505050565b60008219821115610fd257634e487b7160e01b600052601160045260246000fd5b500190565b634e487b7160e01b600052603260045260246000fd5b600181811c9082168061100157607f821691505b60208210810361102157634e487b7160e01b600052602260045260246000fd5b50919050565b60006020828403121561103957600080fd5b81518015158114610f4257600080fdfea26469706673582212204aa15f47e2df158a35271cc66f4cb7ce278ab0b063853b3fbff6cce110c334ed64736f6c634300080d0033",
      "opcodes": "PUSH1 0x80 PUSH1 0x40 MSTORE PUSH1 0x5 DUP1 SLOAD PUSH1 0x1 PUSH1 0x1 PUSH1 0xA0 SHL SUB NOT AND PUSH20 0x874069FA1EB16D44D622F2E0CA25EEA172369BC1 OR SWAP1 SSTORE PUSH1 0x0 PUSH1 0x6 SSTORE CALLVALUE DUP1 ISZERO PUSH3 0x3C JUMPI PUSH1 0x0 DUP1 REVERT JUMPDEST POP PUSH1 0x40 MLOAD PUSH3 0x134D CODESIZE SUB DUP1 PUSH3 0x134D DUP4 CODECOPY DUP2 ADD PUSH1 0x40 DUP2 SWAP1 MSTORE PUSH3 0x5F SWAP2 PUSH3 0x218 JUMP JUMPDEST PUSH1 0x0 DUP1 SLOAD PUSH1 0x1 PUSH1 0x1 PUSH1 0xA0 SHL SUB NOT AND CALLER OR SWAP1 SSTORE DUP2 MLOAD PUSH3 0x86 SWAP1 PUSH1 0x1 SWAP1 PUSH1 0x20 DUP6 ADD SWAP1 PUSH3 0xA5 JUMP JUMPDEST POP DUP1 MLOAD PUSH3 0x9C SWAP1 PUSH1 0x2 SWAP1 PUSH1 0x20 DUP5 ADD SWAP1 PUSH3 0xA5 JUMP JUMPDEST POP POP POP PUSH3 0x2BE JUMP JUMPDEST DUP3 DUP1 SLOAD PUSH3 0xB3 SWAP1 PUSH3 0x282 JUMP JUMPDEST SWAP1 PUSH1 0x0 MSTORE PUSH1 0x20 PUSH1 0x0 KECCAK256 SWAP1 PUSH1 0x1F ADD PUSH1 0x20 SWAP1 DIV DUP2 ADD SWAP3 DUP3 PUSH3 0xD7 JUMPI PUSH1 0x0 DUP6 SSTORE PUSH3 0x122 JUMP JUMPDEST DUP3 PUSH1 0x1F LT PUSH3 0xF2 JUMPI DUP1 MLOAD PUSH1 0xFF NOT AND DUP4 DUP1 ADD OR DUP6 SSTORE PUSH3 0x122 JUMP JUMPDEST DUP3 DUP1 ADD PUSH1 0x1 ADD DUP6 SSTORE DUP3 ISZERO PUSH3 0x122 JUMPI SWAP2 DUP3 ADD JUMPDEST DUP3 DUP2 GT ISZERO PUSH3 0x122 JUMPI DUP3 MLOAD DUP3 SSTORE SWAP2 PUSH1 0x20 ADD SWAP2 SWAP1 PUSH1 0x1 ADD SWAP1 PUSH3 0x105 JUMP JUMPDEST POP PUSH3 0x130 SWAP3 SWAP2 POP PUSH3 0x134 JUMP JUMPDEST POP SWAP1 JUMP JUMPDEST JUMPDEST DUP1 DUP3 GT ISZERO PUSH3 0x130 JUMPI PUSH1 0x0 DUP2 SSTORE PUSH1 0x1 ADD PUSH3 0x135 JUMP JUMPDEST PUSH4 0x4E487B71 PUSH1 0xE0 SHL PUSH1 0x0 MSTORE PUSH1 0x41 PUSH1 0x4 MSTORE PUSH1 0x24 PUSH1 0x0 REVERT JUMPDEST PUSH1 0x0 DUP3 PUSH1 0x1F DUP4 ADD SLT PUSH3 0x173 JUMPI PUSH1 0x0 DUP1 REVERT JUMPDEST DUP2 MLOAD PUSH1 0x1 PUSH1 0x1 PUSH1 0x40 SHL SUB DUP1 DUP3 GT ISZERO PUSH3 0x190 JUMPI PUSH3 0x190 PUSH3 0x14B JUMP JUMPDEST PUSH1 0x40 MLOAD PUSH1 0x1F DUP4 ADD PUSH1 0x1F NOT SWAP1 DUP2 AND PUSH1 0x3F ADD AND DUP2 ADD SWAP1 DUP3 DUP3 GT DUP2 DUP4 LT OR ISZERO PUSH3 0x1BB JUMPI PUSH3 0x1BB PUSH3 0x14B JUMP JUMPDEST DUP2 PUSH1 0x40 MSTORE DUP4 DUP2 MSTORE PUSH1 0x20 SWAP3 POP DUP7 DUP4 DUP6 DUP9 ADD ADD GT ISZERO PUSH3 0x1D8 JUMPI PUSH1 0x0 DUP1 REVERT JUMPDEST PUSH1 0x0 SWAP2 POP JUMPDEST DUP4 DUP3 LT ISZERO PUSH3 0x1FC JUMPI DUP6 DUP3 ADD DUP4 ADD MLOAD DUP2 DUP4 ADD DUP5 ADD MSTORE SWAP1 DUP3 ADD SWAP1 PUSH3 0x1DD JUMP JUMPDEST DUP4 DUP3 GT ISZERO PUSH3 0x20E JUMPI PUSH1 0x0 DUP4 DUP6 DUP4 ADD ADD MSTORE JUMPDEST SWAP7 SWAP6 POP POP POP POP POP POP JUMP JUMPDEST PUSH1 0x0 DUP1 PUSH1 0x40 DUP4 DUP6 SUB SLT ISZERO PUSH3 0x22C JUMPI PUSH1 0x0 DUP1 REVERT JUMPDEST DUP3 MLOAD PUSH1 0x1 PUSH1 0x1 PUSH1 0x40 SHL SUB DUP1 DUP3 GT ISZERO PUSH3 0x244 JUMPI PUSH1 0x0 DUP1 REVERT JUMPDEST PUSH3 0x252 DUP7 DUP4 DUP8 ADD PUSH3 0x161 JUMP JUMPDEST SWAP4 POP PUSH1 0x20 DUP6 ADD MLOAD SWAP2 POP DUP1 DUP3 GT ISZERO PUSH3 0x269 JUMPI PUSH1 0x0 DUP1 REVERT JUMPDEST POP PUSH3 0x278 DUP6 DUP3 DUP7 ADD PUSH3 0x161 JUMP JUMPDEST SWAP2 POP POP SWAP3 POP SWAP3 SWAP1 POP JUMP JUMPDEST PUSH1 0x1 DUP2 DUP2 SHR SWAP1 DUP3 AND DUP1 PUSH3 0x297 JUMPI PUSH1 0x7F DUP3 AND SWAP2 POP JUMPDEST PUSH1 0x20 DUP3 LT DUP2 SUB PUSH3 0x2B8 JUMPI PUSH4 0x4E487B71 PUSH1 0xE0 SHL PUSH1 0x0 MSTORE PUSH1 0x22 PUSH1 0x4 MSTORE PUSH1 0x24 PUSH1 0x0 REVERT JUMPDEST POP SWAP2 SWAP1 POP JUMP JUMPDEST PUSH2 0x107F DUP1 PUSH3 0x2CE PUSH1 0x0 CODECOPY PUSH1 0x0 RETURN INVALID PUSH1 0x80 PUSH1 0x40 MSTORE CALLVALUE DUP1 ISZERO PUSH2 0x10 JUMPI PUSH1 0x0 DUP1 REVERT JUMPDEST POP PUSH1 0x4 CALLDATASIZE LT PUSH2 0xA3 JUMPI PUSH1 0x0 CALLDATALOAD PUSH1 0xE0 SHR DUP1 PUSH4 0x80A79D5F GT PUSH2 0x76 JUMPI DUP1 PUSH4 0xC11CA819 GT PUSH2 0x5B JUMPI DUP1 PUSH4 0xC11CA819 EQ PUSH2 0x16D JUMPI DUP1 PUSH4 0xE4849B32 EQ PUSH2 0x175 JUMPI DUP1 PUSH4 0xE89E025C EQ PUSH2 0x188 JUMPI PUSH1 0x0 DUP1 REVERT JUMPDEST DUP1 PUSH4 0x80A79D5F EQ PUSH2 0x13D JUMPI DUP1 PUSH4 0xA87D942C EQ PUSH2 0x152 JUMPI PUSH1 0x0 DUP1 REVERT JUMPDEST DUP1 PUSH4 0x43BC1612 EQ PUSH2 0xA8 JUMPI DUP1 PUSH4 0x4423C5F1 EQ PUSH2 0xD8 JUMPI DUP1 PUSH4 0x4628D863 EQ PUSH2 0x115 JUMPI DUP1 PUSH4 0x598647F8 EQ PUSH2 0x12A JUMPI JUMPDEST PUSH1 0x0 DUP1 REVERT JUMPDEST PUSH1 0x0 SLOAD PUSH2 0xBB SWAP1 PUSH1 0x1 PUSH1 0x1 PUSH1 0xA0 SHL SUB AND DUP2 JUMP JUMPDEST PUSH1 0x40 MLOAD PUSH1 0x1 PUSH1 0x1 PUSH1 0xA0 SHL SUB SWAP1 SWAP2 AND DUP2 MSTORE PUSH1 0x20 ADD JUMPDEST PUSH1 0x40 MLOAD DUP1 SWAP2 SUB SWAP1 RETURN JUMPDEST PUSH2 0xEB PUSH2 0xE6 CALLDATASIZE PUSH1 0x4 PUSH2 0xD74 JUMP JUMPDEST PUSH2 0x1AE JUMP JUMPDEST PUSH1 0x40 DUP1 MLOAD SWAP5 DUP6 MSTORE PUSH1 0x1 PUSH1 0x1 PUSH1 0xA0 SHL SUB SWAP1 SWAP4 AND PUSH1 0x20 DUP6 ADD MSTORE SWAP2 DUP4 ADD MSTORE ISZERO ISZERO PUSH1 0x60 DUP3 ADD MSTORE PUSH1 0x80 ADD PUSH2 0xCF JUMP JUMPDEST PUSH2 0x128 PUSH2 0x123 CALLDATASIZE PUSH1 0x4 PUSH2 0xE30 JUMP JUMPDEST PUSH2 0x1F4 JUMP JUMPDEST STOP JUMPDEST PUSH2 0x128 PUSH2 0x138 CALLDATASIZE PUSH1 0x4 PUSH2 0xEC0 JUMP JUMPDEST PUSH2 0x3DF JUMP JUMPDEST PUSH2 0x145 PUSH2 0x694 JUMP JUMPDEST PUSH1 0x40 MLOAD PUSH2 0xCF SWAP2 SWAP1 PUSH2 0xF2F JUMP JUMPDEST PUSH1 0x3 SLOAD PUSH1 0x4 SLOAD PUSH1 0x40 DUP1 MLOAD SWAP3 DUP4 MSTORE PUSH1 0x20 DUP4 ADD SWAP2 SWAP1 SWAP2 MSTORE ADD PUSH2 0xCF JUMP JUMPDEST PUSH2 0x145 PUSH2 0x722 JUMP JUMPDEST PUSH2 0x128 PUSH2 0x183 CALLDATASIZE PUSH1 0x4 PUSH2 0xD74 JUMP JUMPDEST PUSH2 0x72F JUMP JUMPDEST PUSH2 0x19B PUSH2 0x196 CALLDATASIZE PUSH1 0x4 PUSH2 0xD74 JUMP JUMPDEST PUSH2 0xAE8 JUMP JUMPDEST PUSH1 0x40 MLOAD PUSH2 0xCF SWAP8 SWAP7 SWAP6 SWAP5 SWAP4 SWAP3 SWAP2 SWAP1 PUSH2 0xF49 JUMP JUMPDEST PUSH1 0x8 DUP2 DUP2 SLOAD DUP2 LT PUSH2 0x1BE JUMPI PUSH1 0x0 DUP1 REVERT JUMPDEST PUSH1 0x0 SWAP2 DUP3 MSTORE PUSH1 0x20 SWAP1 SWAP2 KECCAK256 PUSH1 0x4 SWAP1 SWAP2 MUL ADD DUP1 SLOAD PUSH1 0x1 DUP3 ADD SLOAD PUSH1 0x2 DUP4 ADD SLOAD PUSH1 0x3 SWAP1 SWAP4 ADD SLOAD SWAP2 SWAP4 POP PUSH1 0x1 PUSH1 0x1 PUSH1 0xA0 SHL SUB AND SWAP2 SWAP1 PUSH1 0xFF AND DUP5 JUMP JUMPDEST PUSH1 0x0 SLOAD PUSH1 0x1 PUSH1 0x1 PUSH1 0xA0 SHL SUB AND CALLER EQ PUSH2 0x242 JUMPI PUSH1 0x40 MLOAD PUSH3 0x461BCD PUSH1 0xE5 SHL DUP2 MSTORE PUSH1 0x20 PUSH1 0x4 DUP3 ADD MSTORE PUSH1 0xC PUSH1 0x24 DUP3 ADD MSTORE PUSH12 0x4F6E6C792041727469737421 PUSH1 0xA0 SHL PUSH1 0x44 DUP3 ADD MSTORE PUSH1 0x64 ADD JUMPDEST PUSH1 0x40 MLOAD DUP1 SWAP2 SUB SWAP1 REVERT JUMPDEST PUSH1 0x40 DUP1 MLOAD PUSH1 0xE0 DUP2 ADD DUP3 MSTORE PUSH1 0x6 DUP1 SLOAD DUP3 MSTORE PUSH1 0x20 DUP1 DUP4 ADD DUP9 DUP2 MSTORE SWAP4 DUP4 ADD DUP8 SWAP1 MSTORE PUSH1 0x60 DUP4 ADD DUP7 SWAP1 MSTORE PUSH1 0x80 DUP4 ADD DUP6 SWAP1 MSTORE PUSH1 0x0 PUSH1 0xA0 DUP5 ADD DUP2 SWAP1 MSTORE PUSH1 0xC0 DUP5 ADD DUP2 SWAP1 MSTORE PUSH1 0x7 DUP1 SLOAD PUSH1 0x1 DUP2 ADD DUP3 SSTORE SWAP2 MSTORE DUP4 MLOAD SWAP3 MUL PUSH32 0xA66CC928B5EDB82AF9BD49922954155AB7B0942694BEA4CE44661D9A8736C688 DUP2 ADD SWAP3 DUP4 SSTORE SWAP4 MLOAD DUP1 MLOAD SWAP4 SWAP5 DUP6 SWAP5 PUSH2 0x2EE SWAP4 PUSH32 0xA66CC928B5EDB82AF9BD49922954155AB7B0942694BEA4CE44661D9A8736C689 SWAP1 SWAP3 ADD SWAP3 SWAP1 SWAP2 ADD SWAP1 PUSH2 0xCDB JUMP JUMPDEST POP PUSH1 0x40 DUP3 ADD MLOAD DUP1 MLOAD PUSH2 0x30A SWAP2 PUSH1 0x2 DUP5 ADD SWAP2 PUSH1 0x20 SWAP1 SWAP2 ADD SWAP1 PUSH2 0xCDB JUMP JUMPDEST POP PUSH1 0x60 DUP3 ADD MLOAD DUP1 MLOAD PUSH2 0x326 SWAP2 PUSH1 0x3 DUP5 ADD SWAP2 PUSH1 0x20 SWAP1 SWAP2 ADD SWAP1 PUSH2 0xCDB JUMP JUMPDEST POP PUSH1 0x80 DUP3 ADD MLOAD PUSH1 0x4 DUP3 ADD SSTORE PUSH1 0xA0 DUP3 ADD MLOAD PUSH1 0x5 SWAP1 SWAP2 ADD DUP1 SLOAD PUSH1 0xC0 SWAP1 SWAP4 ADD MLOAD PUSH1 0x1 PUSH1 0x1 PUSH1 0xA0 SHL SUB AND PUSH2 0x100 MUL PUSH32 0xFFFFFFFFFFFFFFFFFFFFFF0000000000000000000000000000000000000000FF SWAP3 ISZERO ISZERO SWAP3 SWAP1 SWAP3 AND PUSH32 0xFFFFFFFFFFFFFFFFFFFFFF000000000000000000000000000000000000000000 SWAP1 SWAP4 AND SWAP3 SWAP1 SWAP3 OR OR SWAP1 SSTORE PUSH1 0x6 DUP1 SLOAD PUSH1 0x1 SWAP2 SWAP1 PUSH1 0x0 SWAP1 PUSH2 0x3B9 SWAP1 DUP5 SWAP1 PUSH2 0xFB1 JUMP JUMPDEST SWAP3 POP POP DUP2 SWAP1 SSTORE POP PUSH1 0x1 PUSH1 0x3 PUSH1 0x0 DUP3 DUP3 SLOAD PUSH2 0x3D3 SWAP2 SWAP1 PUSH2 0xFB1 JUMP JUMPDEST SWAP1 SWAP2 SSTORE POP POP POP POP POP POP POP JUMP JUMPDEST DUP2 PUSH1 0x7 DUP4 DUP2 SLOAD DUP2 LT PUSH2 0x3F3 JUMPI PUSH2 0x3F3 PUSH2 0xFD7 JUMP JUMPDEST SWAP1 PUSH1 0x0 MSTORE PUSH1 0x20 PUSH1 0x0 KECCAK256 SWAP1 PUSH1 0x6 MUL ADD PUSH1 0x0 ADD SLOAD EQ PUSH2 0x452 JUMPI PUSH1 0x40 MLOAD PUSH3 0x461BCD PUSH1 0xE5 SHL DUP2 MSTORE PUSH1 0x20 PUSH1 0x4 DUP3 ADD MSTORE PUSH1 0x8 PUSH1 0x24 DUP3 ADD MSTORE PUSH32 0x57726F6E67206964000000000000000000000000000000000000000000000000 PUSH1 0x44 DUP3 ADD MSTORE PUSH1 0x64 ADD PUSH2 0x239 JUMP JUMPDEST PUSH1 0x7 DUP3 DUP2 SLOAD DUP2 LT PUSH2 0x465 JUMPI PUSH2 0x465 PUSH2 0xFD7 JUMP JUMPDEST PUSH1 0x0 SWAP2 DUP3 MSTORE PUSH1 0x20 SWAP1 SWAP2 KECCAK256 PUSH1 0x5 PUSH1 0x6 SWAP1 SWAP3 MUL ADD ADD SLOAD PUSH1 0xFF AND ISZERO PUSH2 0x4C9 JUMPI PUSH1 0x40 MLOAD PUSH3 0x461BCD PUSH1 0xE5 SHL DUP2 MSTORE PUSH1 0x20 PUSH1 0x4 DUP3 ADD MSTORE PUSH1 0x9 PUSH1 0x24 DUP3 ADD MSTORE PUSH32 0x536F6C64206F7574210000000000000000000000000000000000000000000000 PUSH1 0x44 DUP3 ADD MSTORE PUSH1 0x64 ADD PUSH2 0x239 JUMP JUMPDEST PUSH1 0x7 DUP3 DUP2 SLOAD DUP2 LT PUSH2 0x4DC JUMPI PUSH2 0x4DC PUSH2 0xFD7 JUMP JUMPDEST SWAP1 PUSH1 0x0 MSTORE PUSH1 0x20 PUSH1 0x0 KECCAK256 SWAP1 PUSH1 0x6 MUL ADD PUSH1 0x4 ADD SLOAD DUP2 LT ISZERO PUSH2 0x563 JUMPI PUSH1 0x40 MLOAD PUSH3 0x461BCD PUSH1 0xE5 SHL DUP2 MSTORE PUSH1 0x20 PUSH1 0x4 DUP3 ADD MSTORE PUSH1 0x2E PUSH1 0x24 DUP3 ADD MSTORE PUSH32 0x4D616B652073757265207468617420796F752061746C656174206D6174636820 PUSH1 0x44 DUP3 ADD MSTORE PUSH32 0x7468652062617365207072696365000000000000000000000000000000000000 PUSH1 0x64 DUP3 ADD MSTORE PUSH1 0x84 ADD PUSH2 0x239 JUMP JUMPDEST PUSH1 0x40 DUP1 MLOAD PUSH1 0x80 DUP2 ADD DUP3 MSTORE DUP4 DUP2 MSTORE CALLER PUSH1 0x20 DUP3 ADD SWAP1 DUP2 MSTORE SWAP2 DUP2 ADD DUP4 DUP2 MSTORE PUSH1 0x0 PUSH1 0x60 DUP4 ADD DUP2 DUP2 MSTORE PUSH1 0x8 DUP1 SLOAD PUSH1 0x1 DUP1 DUP3 ADD DUP4 SSTORE SWAP2 DUP5 MSTORE DUP6 MLOAD PUSH32 0xF3F7A9FE364FAAB93B216DA50A3214154F22A0A2B415B23A84C8169E8B636EE3 PUSH1 0x4 SWAP3 DUP4 MUL SWAP1 DUP2 ADD SWAP2 SWAP1 SWAP2 SSTORE SWAP7 MLOAD PUSH32 0xF3F7A9FE364FAAB93B216DA50A3214154F22A0A2B415B23A84C8169E8B636EE4 DUP9 ADD DUP1 SLOAD PUSH32 0xFFFFFFFFFFFFFFFFFFFFFFFF0000000000000000000000000000000000000000 AND PUSH1 0x1 PUSH1 0x1 PUSH1 0xA0 SHL SUB SWAP1 SWAP3 AND SWAP2 SWAP1 SWAP2 OR SWAP1 SSTORE SWAP4 MLOAD PUSH32 0xF3F7A9FE364FAAB93B216DA50A3214154F22A0A2B415B23A84C8169E8B636EE5 DUP8 ADD SSTORE SWAP1 MLOAD PUSH32 0xF3F7A9FE364FAAB93B216DA50A3214154F22A0A2B415B23A84C8169E8B636EE6 SWAP1 SWAP6 ADD DUP1 SLOAD PUSH1 0xFF NOT AND SWAP6 ISZERO ISZERO SWAP6 SWAP1 SWAP6 OR SWAP1 SWAP5 SSTORE DUP2 SLOAD SWAP3 SWAP4 SWAP3 PUSH2 0x68A SWAP1 DUP5 SWAP1 PUSH2 0xFB1 JUMP JUMPDEST SWAP1 SWAP2 SSTORE POP POP POP POP POP JUMP JUMPDEST PUSH1 0x2 DUP1 SLOAD PUSH2 0x6A1 SWAP1 PUSH2 0xFED JUMP JUMPDEST DUP1 PUSH1 0x1F ADD PUSH1 0x20 DUP1 SWAP2 DIV MUL PUSH1 0x20 ADD PUSH1 0x40 MLOAD SWAP1 DUP2 ADD PUSH1 0x40 MSTORE DUP1 SWAP3 SWAP2 SWAP1 DUP2 DUP2 MSTORE PUSH1 0x20 ADD DUP3 DUP1 SLOAD PUSH2 0x6CD SWAP1 PUSH2 0xFED JUMP JUMPDEST DUP1 ISZERO PUSH2 0x71A JUMPI DUP1 PUSH1 0x1F LT PUSH2 0x6EF JUMPI PUSH2 0x100 DUP1 DUP4 SLOAD DIV MUL DUP4 MSTORE SWAP2 PUSH1 0x20 ADD SWAP2 PUSH2 0x71A JUMP JUMPDEST DUP3 ADD SWAP2 SWAP1 PUSH1 0x0 MSTORE PUSH1 0x20 PUSH1 0x0 KECCAK256 SWAP1 JUMPDEST DUP2 SLOAD DUP2 MSTORE SWAP1 PUSH1 0x1 ADD SWAP1 PUSH1 0x20 ADD DUP1 DUP4 GT PUSH2 0x6FD JUMPI DUP3 SWAP1 SUB PUSH1 0x1F AND DUP3 ADD SWAP2 JUMPDEST POP POP POP POP POP DUP2 JUMP JUMPDEST PUSH1 0x1 DUP1 SLOAD PUSH2 0x6A1 SWAP1 PUSH2 0xFED JUMP JUMPDEST PUSH1 0x0 SLOAD PUSH1 0x1 PUSH1 0x1 PUSH1 0xA0 SHL SUB AND CALLER EQ PUSH2 0x778 JUMPI PUSH1 0x40 MLOAD PUSH3 0x461BCD PUSH1 0xE5 SHL DUP2 MSTORE PUSH1 0x20 PUSH1 0x4 DUP3 ADD MSTORE PUSH1 0xC PUSH1 0x24 DUP3 ADD MSTORE PUSH12 0x4F6E6C792041727469737421 PUSH1 0xA0 SHL PUSH1 0x44 DUP3 ADD MSTORE PUSH1 0x64 ADD PUSH2 0x239 JUMP JUMPDEST PUSH1 0x8 DUP2 DUP2 SLOAD DUP2 LT PUSH2 0x78B JUMPI PUSH2 0x78B PUSH2 0xFD7 JUMP JUMPDEST PUSH1 0x0 SWAP2 DUP3 MSTORE PUSH1 0x20 SWAP1 SWAP2 KECCAK256 PUSH1 0x3 PUSH1 0x4 SWAP1 SWAP3 MUL ADD ADD SLOAD PUSH1 0xFF AND ISZERO PUSH2 0x7DE JUMPI PUSH1 0x40 MLOAD PUSH3 0x461BCD PUSH1 0xE5 SHL DUP2 MSTORE PUSH1 0x20 PUSH1 0x4 DUP3 ADD MSTORE PUSH1 0xC PUSH1 0x24 DUP3 ADD MSTORE PUSH12 0x536F6C6420616C7265616479 PUSH1 0xA0 SHL PUSH1 0x44 DUP3 ADD MSTORE PUSH1 0x64 ADD PUSH2 0x239 JUMP JUMPDEST PUSH1 0x7 PUSH1 0x8 DUP3 DUP2 SLOAD DUP2 LT PUSH2 0x7F3 JUMPI PUSH2 0x7F3 PUSH2 0xFD7 JUMP JUMPDEST SWAP1 PUSH1 0x0 MSTORE PUSH1 0x20 PUSH1 0x0 KECCAK256 SWAP1 PUSH1 0x4 MUL ADD PUSH1 0x0 ADD SLOAD DUP2 SLOAD DUP2 LT PUSH2 0x815 JUMPI PUSH2 0x815 PUSH2 0xFD7 JUMP JUMPDEST PUSH1 0x0 SWAP2 DUP3 MSTORE PUSH1 0x20 SWAP1 SWAP2 KECCAK256 PUSH1 0x5 PUSH1 0x6 SWAP1 SWAP3 MUL ADD ADD SLOAD PUSH1 0xFF AND ISZERO PUSH2 0x868 JUMPI PUSH1 0x40 MLOAD PUSH3 0x461BCD PUSH1 0xE5 SHL DUP2 MSTORE PUSH1 0x20 PUSH1 0x4 DUP3 ADD MSTORE PUSH1 0xC PUSH1 0x24 DUP3 ADD MSTORE PUSH12 0x536F6C6420616C7265616479 PUSH1 0xA0 SHL PUSH1 0x44 DUP3 ADD MSTORE PUSH1 0x64 ADD PUSH2 0x239 JUMP JUMPDEST PUSH1 0x5 SLOAD PUSH1 0x8 DUP1 SLOAD PUSH1 0x1 PUSH1 0x1 PUSH1 0xA0 SHL SUB SWAP1 SWAP3 AND SWAP2 PUSH4 0x23B872DD SWAP2 SWAP1 DUP5 SWAP1 DUP2 LT PUSH2 0x892 JUMPI PUSH2 0x892 PUSH2 0xFD7 JUMP JUMPDEST SWAP1 PUSH1 0x0 MSTORE PUSH1 0x20 PUSH1 0x0 KECCAK256 SWAP1 PUSH1 0x4 MUL ADD PUSH1 0x1 ADD PUSH1 0x0 SWAP1 SLOAD SWAP1 PUSH2 0x100 EXP SWAP1 DIV PUSH1 0x1 PUSH1 0x1 PUSH1 0xA0 SHL SUB AND CALLER PUSH1 0x8 DUP6 DUP2 SLOAD DUP2 LT PUSH2 0x8CB JUMPI PUSH2 0x8CB PUSH2 0xFD7 JUMP JUMPDEST SWAP1 PUSH1 0x0 MSTORE PUSH1 0x20 PUSH1 0x0 KECCAK256 SWAP1 PUSH1 0x4 MUL ADD PUSH1 0x2 ADD SLOAD PUSH1 0x40 MLOAD DUP5 PUSH4 0xFFFFFFFF AND PUSH1 0xE0 SHL DUP2 MSTORE PUSH1 0x4 ADD PUSH2 0x91A SWAP4 SWAP3 SWAP2 SWAP1 PUSH1 0x1 PUSH1 0x1 PUSH1 0xA0 SHL SUB SWAP4 DUP5 AND DUP2 MSTORE SWAP2 SWAP1 SWAP3 AND PUSH1 0x20 DUP3 ADD MSTORE PUSH1 0x40 DUP2 ADD SWAP2 SWAP1 SWAP2 MSTORE PUSH1 0x60 ADD SWAP1 JUMP JUMPDEST PUSH1 0x20 PUSH1 0x40 MLOAD DUP1 DUP4 SUB DUP2 PUSH1 0x0 DUP8 GAS CALL ISZERO DUP1 ISZERO PUSH2 0x939 JUMPI RETURNDATASIZE PUSH1 0x0 DUP1 RETURNDATACOPY RETURNDATASIZE PUSH1 0x0 REVERT JUMPDEST POP POP POP POP PUSH1 0x40 MLOAD RETURNDATASIZE PUSH1 0x1F NOT PUSH1 0x1F DUP3 ADD AND DUP3 ADD DUP1 PUSH1 0x40 MSTORE POP DUP2 ADD SWAP1 PUSH2 0x95D SWAP2 SWAP1 PUSH2 0x1027 JUMP JUMPDEST PUSH2 0x9A9 JUMPI PUSH1 0x40 MLOAD PUSH3 0x461BCD PUSH1 0xE5 SHL DUP2 MSTORE PUSH1 0x20 PUSH1 0x4 DUP3 ADD MSTORE PUSH1 0x6 PUSH1 0x24 DUP3 ADD MSTORE PUSH32 0x4661696C65640000000000000000000000000000000000000000000000000000 PUSH1 0x44 DUP3 ADD MSTORE PUSH1 0x64 ADD PUSH2 0x239 JUMP JUMPDEST PUSH1 0x8 DUP2 DUP2 SLOAD DUP2 LT PUSH2 0x9BC JUMPI PUSH2 0x9BC PUSH2 0xFD7 JUMP JUMPDEST SWAP1 PUSH1 0x0 MSTORE PUSH1 0x20 PUSH1 0x0 KECCAK256 SWAP1 PUSH1 0x4 MUL ADD PUSH1 0x1 ADD PUSH1 0x0 SWAP1 SLOAD SWAP1 PUSH2 0x100 EXP SWAP1 DIV PUSH1 0x1 PUSH1 0x1 PUSH1 0xA0 SHL SUB AND PUSH1 0x7 PUSH1 0x8 DUP4 DUP2 SLOAD DUP2 LT PUSH2 0x9F6 JUMPI PUSH2 0x9F6 PUSH2 0xFD7 JUMP JUMPDEST SWAP1 PUSH1 0x0 MSTORE PUSH1 0x20 PUSH1 0x0 KECCAK256 SWAP1 PUSH1 0x4 MUL ADD PUSH1 0x0 ADD SLOAD DUP2 SLOAD DUP2 LT PUSH2 0xA18 JUMPI PUSH2 0xA18 PUSH2 0xFD7 JUMP JUMPDEST SWAP1 PUSH1 0x0 MSTORE PUSH1 0x20 PUSH1 0x0 KECCAK256 SWAP1 PUSH1 0x6 MUL ADD PUSH1 0x5 ADD PUSH1 0x1 PUSH2 0x100 EXP DUP2 SLOAD DUP2 PUSH1 0x1 PUSH1 0x1 PUSH1 0xA0 SHL SUB MUL NOT AND SWAP1 DUP4 PUSH1 0x1 PUSH1 0x1 PUSH1 0xA0 SHL SUB AND MUL OR SWAP1 SSTORE POP PUSH1 0x1 PUSH1 0x8 DUP3 DUP2 SLOAD DUP2 LT PUSH2 0xA62 JUMPI PUSH2 0xA62 PUSH2 0xFD7 JUMP JUMPDEST SWAP1 PUSH1 0x0 MSTORE PUSH1 0x20 PUSH1 0x0 KECCAK256 SWAP1 PUSH1 0x4 MUL ADD PUSH1 0x3 ADD PUSH1 0x0 PUSH2 0x100 EXP DUP2 SLOAD DUP2 PUSH1 0xFF MUL NOT AND SWAP1 DUP4 ISZERO ISZERO MUL OR SWAP1 SSTORE POP PUSH1 0x1 PUSH1 0x7 PUSH1 0x8 DUP4 DUP2 SLOAD DUP2 LT PUSH2 0xAA1 JUMPI PUSH2 0xAA1 PUSH2 0xFD7 JUMP JUMPDEST SWAP1 PUSH1 0x0 MSTORE PUSH1 0x20 PUSH1 0x0 KECCAK256 SWAP1 PUSH1 0x4 MUL ADD PUSH1 0x0 ADD SLOAD DUP2 SLOAD DUP2 LT PUSH2 0xAC3 JUMPI PUSH2 0xAC3 PUSH2 0xFD7 JUMP JUMPDEST PUSH1 0x0 SWAP2 DUP3 MSTORE PUSH1 0x20 SWAP1 SWAP2 KECCAK256 PUSH1 0x6 SWAP1 SWAP2 MUL ADD PUSH1 0x5 ADD DUP1 SLOAD PUSH1 0xFF NOT AND SWAP2 ISZERO ISZERO SWAP2 SWAP1 SWAP2 OR SWAP1 SSTORE POP JUMP JUMPDEST PUSH1 0x7 DUP2 DUP2 SLOAD DUP2 LT PUSH2 0xAF8 JUMPI PUSH1 0x0 DUP1 REVERT JUMPDEST PUSH1 0x0 SWAP2 DUP3 MSTORE PUSH1 0x20 SWAP1 SWAP2 KECCAK256 PUSH1 0x6 SWAP1 SWAP2 MUL ADD DUP1 SLOAD PUSH1 0x1 DUP3 ADD DUP1 SLOAD SWAP2 SWAP4 POP SWAP1 PUSH2 0xB1D SWAP1 PUSH2 0xFED JUMP JUMPDEST DUP1 PUSH1 0x1F ADD PUSH1 0x20 DUP1 SWAP2 DIV MUL PUSH1 0x20 ADD PUSH1 0x40 MLOAD SWAP1 DUP2 ADD PUSH1 0x40 MSTORE DUP1 SWAP3 SWAP2 SWAP1 DUP2 DUP2 MSTORE PUSH1 0x20 ADD DUP3 DUP1 SLOAD PUSH2 0xB49 SWAP1 PUSH2 0xFED JUMP JUMPDEST DUP1 ISZERO PUSH2 0xB96 JUMPI DUP1 PUSH1 0x1F LT PUSH2 0xB6B JUMPI PUSH2 0x100 DUP1 DUP4 SLOAD DIV MUL DUP4 MSTORE SWAP2 PUSH1 0x20 ADD SWAP2 PUSH2 0xB96 JUMP JUMPDEST DUP3 ADD SWAP2 SWAP1 PUSH1 0x0 MSTORE PUSH1 0x20 PUSH1 0x0 KECCAK256 SWAP1 JUMPDEST DUP2 SLOAD DUP2 MSTORE SWAP1 PUSH1 0x1 ADD SWAP1 PUSH1 0x20 ADD DUP1 DUP4 GT PUSH2 0xB79 JUMPI DUP3 SWAP1 SUB PUSH1 0x1F AND DUP3 ADD SWAP2 JUMPDEST POP POP POP POP POP SWAP1 DUP1 PUSH1 0x2 ADD DUP1 SLOAD PUSH2 0xBAB SWAP1 PUSH2 0xFED JUMP JUMPDEST DUP1 PUSH1 0x1F ADD PUSH1 0x20 DUP1 SWAP2 DIV MUL PUSH1 0x20 ADD PUSH1 0x40 MLOAD SWAP1 DUP2 ADD PUSH1 0x40 MSTORE DUP1 SWAP3 SWAP2 SWAP1 DUP2 DUP2 MSTORE PUSH1 0x20 ADD DUP3 DUP1 SLOAD PUSH2 0xBD7 SWAP1 PUSH2 0xFED JUMP JUMPDEST DUP1 ISZERO PUSH2 0xC24 JUMPI DUP1 PUSH1 0x1F LT PUSH2 0xBF9 JUMPI PUSH2 0x100 DUP1 DUP4 SLOAD DIV MUL DUP4 MSTORE SWAP2 PUSH1 0x20 ADD SWAP2 PUSH2 0xC24 JUMP JUMPDEST DUP3 ADD SWAP2 SWAP1 PUSH1 0x0 MSTORE PUSH1 0x20 PUSH1 0x0 KECCAK256 SWAP1 JUMPDEST DUP2 SLOAD DUP2 MSTORE SWAP1 PUSH1 0x1 ADD SWAP1 PUSH1 0x20 ADD DUP1 DUP4 GT PUSH2 0xC07 JUMPI DUP3 SWAP1 SUB PUSH1 0x1F AND DUP3 ADD SWAP2 JUMPDEST POP POP POP POP POP SWAP1 DUP1 PUSH1 0x3 ADD DUP1 SLOAD PUSH2 0xC39 SWAP1 PUSH2 0xFED JUMP JUMPDEST DUP1 PUSH1 0x1F ADD PUSH1 0x20 DUP1 SWAP2 DIV MUL PUSH1 0x20 ADD PUSH1 0x40 MLOAD SWAP1 DUP2 ADD PUSH1 0x40 MSTORE DUP1 SWAP3 SWAP2 SWAP1 DUP2 DUP2 MSTORE PUSH1 0x20 ADD DUP3 DUP1 SLOAD PUSH2 0xC65 SWAP1 PUSH2 0xFED JUMP JUMPDEST DUP1 ISZERO PUSH2 0xCB2 JUMPI DUP1 PUSH1 0x1F LT PUSH2 0xC87 JUMPI PUSH2 0x100 DUP1 DUP4 SLOAD DIV MUL DUP4 MSTORE SWAP2 PUSH1 0x20 ADD SWAP2 PUSH2 0xCB2 JUMP JUMPDEST DUP3 ADD SWAP2 SWAP1 PUSH1 0x0 MSTORE PUSH1 0x20 PUSH1 0x0 KECCAK256 SWAP1 JUMPDEST DUP2 SLOAD DUP2 MSTORE SWAP1 PUSH1 0x1 ADD SWAP1 PUSH1 0x20 ADD DUP1 DUP4 GT PUSH2 0xC95 JUMPI DUP3 SWAP1 SUB PUSH1 0x1F AND DUP3 ADD SWAP2 JUMPDEST POP POP POP POP PUSH1 0x4 DUP4 ADD SLOAD PUSH1 0x5 SWAP1 SWAP4 ADD SLOAD SWAP2 SWAP3 SWAP2 PUSH1 0xFF DUP2 AND SWAP2 POP PUSH2 0x100 SWAP1 DIV PUSH1 0x1 PUSH1 0x1 PUSH1 0xA0 SHL SUB AND DUP8 JUMP JUMPDEST DUP3 DUP1 SLOAD PUSH2 0xCE7 SWAP1 PUSH2 0xFED JUMP JUMPDEST SWAP1 PUSH1 0x0 MSTORE PUSH1 0x20 PUSH1 0x0 KECCAK256 SWAP1 PUSH1 0x1F ADD PUSH1 0x20 SWAP1 DIV DUP2 ADD SWAP3 DUP3 PUSH2 0xD09 JUMPI PUSH1 0x0 DUP6 SSTORE PUSH2 0xD4F JUMP JUMPDEST DUP3 PUSH1 0x1F LT PUSH2 0xD22 JUMPI DUP1 MLOAD PUSH1 0xFF NOT AND DUP4 DUP1 ADD OR DUP6 SSTORE PUSH2 0xD4F JUMP JUMPDEST DUP3 DUP1 ADD PUSH1 0x1 ADD DUP6 SSTORE DUP3 ISZERO PUSH2 0xD4F JUMPI SWAP2 DUP3 ADD JUMPDEST DUP3 DUP2 GT ISZERO PUSH2 0xD4F JUMPI DUP3 MLOAD DUP3 SSTORE SWAP2 PUSH1 0x20 ADD SWAP2 SWAP1 PUSH1 0x1 ADD SWAP1 PUSH2 0xD34 JUMP JUMPDEST POP PUSH2 0xD5B SWAP3 SWAP2 POP PUSH2 0xD5F JUMP JUMPDEST POP SWAP1 JUMP JUMPDEST JUMPDEST DUP1 DUP3 GT ISZERO PUSH2 0xD5B JUMPI PUSH1 0x0 DUP2 SSTORE PUSH1 0x1 ADD PUSH2 0xD60 JUMP JUMPDEST PUSH1 0x0 PUSH1 0x20 DUP3 DUP5 SUB SLT ISZERO PUSH2 0xD86 JUMPI PUSH1 0x0 DUP1 REVERT JUMPDEST POP CALLDATALOAD SWAP2 SWAP1 POP JUMP JUMPDEST PUSH4 0x4E487B71 PUSH1 0xE0 SHL PUSH1 0x0 MSTORE PUSH1 0x41 PUSH1 0x4 MSTORE PUSH1 0x24 PUSH1 0x0 REVERT JUMPDEST PUSH1 0x0 DUP3 PUSH1 0x1F DUP4 ADD SLT PUSH2 0xDB4 JUMPI PUSH1 0x0 DUP1 REVERT JUMPDEST DUP2 CALLDATALOAD PUSH8 0xFFFFFFFFFFFFFFFF DUP1 DUP3 GT ISZERO PUSH2 0xDCF JUMPI PUSH2 0xDCF PUSH2 0xD8D JUMP JUMPDEST PUSH1 0x40 MLOAD PUSH1 0x1F DUP4 ADD PUSH1 0x1F NOT SWAP1 DUP2 AND PUSH1 0x3F ADD AND DUP2 ADD SWAP1 DUP3 DUP3 GT DUP2 DUP4 LT OR ISZERO PUSH2 0xDF7 JUMPI PUSH2 0xDF7 PUSH2 0xD8D JUMP JUMPDEST DUP2 PUSH1 0x40 MSTORE DUP4 DUP2 MSTORE DUP7 PUSH1 0x20 DUP6 DUP9 ADD ADD GT ISZERO PUSH2 0xE10 JUMPI PUSH1 0x0 DUP1 REVERT JUMPDEST DUP4 PUSH1 0x20 DUP8 ADD PUSH1 0x20 DUP4 ADD CALLDATACOPY PUSH1 0x0 PUSH1 0x20 DUP6 DUP4 ADD ADD MSTORE DUP1 SWAP5 POP POP POP POP POP SWAP3 SWAP2 POP POP JUMP JUMPDEST PUSH1 0x0 DUP1 PUSH1 0x0 DUP1 PUSH1 0x80 DUP6 DUP8 SUB SLT ISZERO PUSH2 0xE46 JUMPI PUSH1 0x0 DUP1 REVERT JUMPDEST DUP5 CALLDATALOAD PUSH8 0xFFFFFFFFFFFFFFFF DUP1 DUP3 GT ISZERO PUSH2 0xE5E JUMPI PUSH1 0x0 DUP1 REVERT JUMPDEST PUSH2 0xE6A DUP9 DUP4 DUP10 ADD PUSH2 0xDA3 JUMP JUMPDEST SWAP6 POP PUSH1 0x20 DUP8 ADD CALLDATALOAD SWAP2 POP DUP1 DUP3 GT ISZERO PUSH2 0xE80 JUMPI PUSH1 0x0 DUP1 REVERT JUMPDEST PUSH2 0xE8C DUP9 DUP4 DUP10 ADD PUSH2 0xDA3 JUMP JUMPDEST SWAP5 POP PUSH1 0x40 DUP8 ADD CALLDATALOAD SWAP2 POP DUP1 DUP3 GT ISZERO PUSH2 0xEA2 JUMPI PUSH1 0x0 DUP1 REVERT JUMPDEST POP PUSH2 0xEAF DUP8 DUP3 DUP9 ADD PUSH2 0xDA3 JUMP JUMPDEST SWAP5 SWAP8 SWAP4 SWAP7 POP SWAP4 SWAP5 PUSH1 0x60 ADD CALLDATALOAD SWAP4 POP POP POP JUMP JUMPDEST PUSH1 0x0 DUP1 PUSH1 0x40 DUP4 DUP6 SUB SLT ISZERO PUSH2 0xED3 JUMPI PUSH1 0x0 DUP1 REVERT JUMPDEST POP POP DUP1 CALLDATALOAD SWAP3 PUSH1 0x20 SWAP1 SWAP2 ADD CALLDATALOAD SWAP2 POP JUMP JUMPDEST PUSH1 0x0 DUP2 MLOAD DUP1 DUP5 MSTORE PUSH1 0x0 JUMPDEST DUP2 DUP2 LT ISZERO PUSH2 0xF08 JUMPI PUSH1 0x20 DUP2 DUP6 ADD DUP2 ADD MLOAD DUP7 DUP4 ADD DUP3 ADD MSTORE ADD PUSH2 0xEEC JUMP JUMPDEST DUP2 DUP2 GT ISZERO PUSH2 0xF1A JUMPI PUSH1 0x0 PUSH1 0x20 DUP4 DUP8 ADD ADD MSTORE JUMPDEST POP PUSH1 0x1F ADD PUSH1 0x1F NOT AND SWAP3 SWAP1 SWAP3 ADD PUSH1 0x20 ADD SWAP3 SWAP2 POP POP JUMP JUMPDEST PUSH1 0x20 DUP2 MSTORE PUSH1 0x0 PUSH2 0xF42 PUSH1 0x20 DUP4 ADD DUP5 PUSH2 0xEE2 JUMP JUMPDEST SWAP4 SWAP3 POP POP POP JUMP JUMPDEST DUP8 DUP2 MSTORE PUSH1 0xE0 PUSH1 0x20 DUP3 ADD MSTORE PUSH1 0x0 PUSH2 0xF62 PUSH1 0xE0 DUP4 ADD DUP10 PUSH2 0xEE2 JUMP JUMPDEST DUP3 DUP2 SUB PUSH1 0x40 DUP5 ADD MSTORE PUSH2 0xF74 DUP2 DUP10 PUSH2 0xEE2 JUMP JUMPDEST SWAP1 POP DUP3 DUP2 SUB PUSH1 0x60 DUP5 ADD MSTORE PUSH2 0xF88 DUP2 DUP9 PUSH2 0xEE2 JUMP JUMPDEST PUSH1 0x80 DUP5 ADD SWAP7 SWAP1 SWAP7 MSTORE POP POP SWAP2 ISZERO ISZERO PUSH1 0xA0 DUP4 ADD MSTORE PUSH1 0x1 PUSH1 0x1 PUSH1 0xA0 SHL SUB AND PUSH1 0xC0 SWAP1 SWAP2 ADD MSTORE SWAP5 SWAP4 POP POP POP POP JUMP JUMPDEST PUSH1 0x0 DUP3 NOT DUP3 GT ISZERO PUSH2 0xFD2 JUMPI PUSH4 0x4E487B71 PUSH1 0xE0 SHL PUSH1 0x0 MSTORE PUSH1 0x11 PUSH1 0x4 MSTORE PUSH1 0x24 PUSH1 0x0 REVERT JUMPDEST POP ADD SWAP1 JUMP JUMPDEST PUSH4 0x4E487B71 PUSH1 0xE0 SHL PUSH1 0x0 MSTORE PUSH1 0x32 PUSH1 0x4 MSTORE PUSH1 0x24 PUSH1 0x0 REVERT JUMPDEST PUSH1 0x1 DUP2 DUP2 SHR SWAP1 DUP3 AND DUP1 PUSH2 0x1001 JUMPI PUSH1 0x7F DUP3 AND SWAP2 POP JUMPDEST PUSH1 0x20 DUP3 LT DUP2 SUB PUSH2 0x1021 JUMPI PUSH4 0x4E487B71 PUSH1 0xE0 SHL PUSH1 0x0 MSTORE PUSH1 0x22 PUSH1 0x4 MSTORE PUSH1 0x24 PUSH1 0x0 REVERT JUMPDEST POP SWAP2 SWAP1 POP JUMP JUMPDEST PUSH1 0x0 PUSH1 0x20 DUP3 DUP5 SUB SLT ISZERO PUSH2 0x1039 JUMPI PUSH1 0x0 DUP1 REVERT JUMPDEST DUP2 MLOAD DUP1 ISZERO ISZERO DUP2 EQ PUSH2 0xF42 JUMPI PUSH1 0x0 DUP1 REVERT INVALID LOG2 PUSH5 0x6970667358 0x22 SLT KECCAK256 0x4A LOG1 0x5F SELFBALANCE 0xE2 0xDF ISZERO DUP11 CALLDATALOAD 0x27 SHR 0xC6 PUSH16 0x4CB7CE278AB0B063853B3FBFF6CCE110 0xC3 CALLVALUE 0xED PUSH5 0x736F6C6343 STOP ADDMOD 0xD STOP CALLER "
    },
    "gasEstimates": {
      "creation": {
        "codeDepositCost": "844600",
        "executionCost": "infinite",
        "totalCost": "infinite"
      },
      "external": {
        "aboutTheArtist()": "infinite",
        "artWorks(uint256)": "infinite",
        "artist()": "2327",
        "bid(uint256,uint256)": "154700",
        "bids(uint256)": "11056",
        "getCount()": "4452",
        "nameOfArtist()": "infinite",
        "sell(uint256)": "infinite",
        "uploadArtWork(string,string,string,uint256)": "infinite"
      }
    },
    "methodIdentifiers": {
      "aboutTheArtist()": "80a79d5f",
      "artWorks(uint256)": "e89e025c",
      "artist()": "43bc1612",
      "bid(uint256,uint256)": "598647f8",
      "bids(uint256)": "4423c5f1",
      "getCount()": "a87d942c",
      "nameOfArtist()": "c11ca819",
      "sell(uint256)": "e4849b32",
      "uploadArtWork(string,string,string,uint256)": "4628d863"
    }
  },
  "storageLayout": {
    "storage": [
      {
        "astId": 106,
        "contract": "Artist.sol:Artist",
        "label": "artist",
        "offset": 0,
        "slot": "0",
        "type": "t_address"
      },
      {
        "astId": 108,
        "contract": "Artist.sol:Artist",
        "label": "nameOfArtist",
        "offset": 0,
        "slot": "1",
        "type": "t_string_storage"
      },
      {
        "astId": 110,
        "contract": "Artist.sol:Artist",
        "label": "aboutTheArtist",
        "offset": 0,
        "slot": "2",
        "type": "t_string_storage"
      },
      {
        "astId": 112,
        "contract": "Artist.sol:Artist",
        "label": "countOfArtWorks",
        "offset": 0,
        "slot": "3",
        "type": "t_uint256"
      },
      {
        "astId": 114,
        "contract": "Artist.sol:Artist",
        "label": "countOfBids",
        "offset": 0,
        "slot": "4",
        "type": "t_uint256"
      },
      {
        "astId": 117,
        "contract": "Artist.sol:Artist",
        "label": "cUSD",
        "offset": 0,
        "slot": "5",
        "type": "t_address"
      },
      {
        "astId": 120,
        "contract": "Artist.sol:Artist",
        "label": "id",
        "offset": 0,
        "slot": "6",
        "type": "t_uint256"
      },
      {
        "astId": 124,
        "contract": "Artist.sol:Artist",
        "label": "artWorks",
        "offset": 0,
        "slot": "7",
        "type": "t_array(t_struct(ArtWork)83_storage)dyn_storage"
      },
      {
        "astId": 128,
        "contract": "Artist.sol:Artist",
        "label": "bids",
        "offset": 0,
        "slot": "8",
        "type": "t_array(t_struct(Bid)92_storage)dyn_storage"
      }
    ],
    "types": {
      "t_address": {
        "encoding": "inplace",
        "label": "address",
        "numberOfBytes": "20"
      },
      "t_array(t_struct(ArtWork)83_storage)dyn_storage": {
        "base": "t_struct(ArtWork)83_storage",
        "encoding": "dynamic_array",
        "label": "struct Artist.ArtWork[]",
        "numberOfBytes": "32"
      },
      "t_array(t_struct(Bid)92_storage)dyn_storage": {
        "base": "t_struct(Bid)92_storage",
        "encoding": "dynamic_array",
        "label": "struct Artist.Bid[]",
        "numberOfBytes": "32"
      },
      "t_bool": {
        "encoding": "inplace",
        "label": "bool",
        "numberOfBytes": "1"
      },
      "t_string_storage": {
        "encoding": "bytes",
        "label": "string",
        "numberOfBytes": "32"
      },
      "t_struct(ArtWork)83_storage": {
        "encoding": "inplace",
        "label": "struct Artist.ArtWork",
        "members": [
          {
            "astId": 70,
            "contract": "Artist.sol:Artist",
            "label": "id",
            "offset": 0,
            "slot": "0",
            "type": "t_uint256"
          },
          {
            "astId": 72,
            "contract": "Artist.sol:Artist",
            "label": "name",
            "offset": 0,
            "slot": "1",
            "type": "t_string_storage"
          },
          {
            "astId": 74,
            "contract": "Artist.sol:Artist",
            "label": "url",
            "offset": 0,
            "slot": "2",
            "type": "t_string_storage"
          },
          {
            "astId": 76,
            "contract": "Artist.sol:Artist",
            "label": "description",
            "offset": 0,
            "slot": "3",
            "type": "t_string_storage"
          },
          {
            "astId": 78,
            "contract": "Artist.sol:Artist",
            "label": "basePrice",
            "offset": 0,
            "slot": "4",
            "type": "t_uint256"
          },
          {
            "astId": 80,
            "contract": "Artist.sol:Artist",
            "label": "isSold",
            "offset": 0,
            "slot": "5",
            "type": "t_bool"
          },
          {
            "astId": 82,
            "contract": "Artist.sol:Artist",
            "label": "soldTo",
            "offset": 1,
            "slot": "5",
            "type": "t_address"
          }
        ],
        "numberOfBytes": "192"
      },
      "t_struct(Bid)92_storage": {
        "encoding": "inplace",
        "label": "struct Artist.Bid",
        "members": [
          {
            "astId": 85,
            "contract": "Artist.sol:Artist",
            "label": "artWorkId",
            "offset": 0,
            "slot": "0",
            "type": "t_uint256"
          },
          {
            "astId": 87,
            "contract": "Artist.sol:Artist",
            "label": "bidder",
            "offset": 0,
            "slot": "1",
            "type": "t_address"
          },
          {
            "astId": 89,
            "contract": "Artist.sol:Artist",
            "label": "amount",
            "offset": 0,
            "slot": "2",
            "type": "t_uint256"
          },
          {
            "astId": 91,
            "contract": "Artist.sol:Artist",
            "label": "isComplete",
            "offset": 0,
            "slot": "3",
            "type": "t_bool"
          }
        ],
        "numberOfBytes": "128"
      },
      "t_uint256": {
        "encoding": "inplace",
        "label": "uint256",
        "numberOfBytes": "32"
      }
    }
  },
  "userdoc": {
    "kind": "user",
    "methods": {},
    "version": 1
  }
}